:100000000C94EB000C9413010C9413010C94130149
:100010000C9413010C9413010C9413010C94130110
:100020000C9413010C9413010C9413010C94130100
:100030000C9413010C9413010C9413010C941301F0
:100040000C9413010C9413010C9413010C941301E0
:100050000C9413010C9413010C9413010C941301D0
:100060000C9413010C9413010C9413010C941301C0
:100070000C9413010C9413010C9413010C941301B0
:100080000C9413010C9413010C9413010C941301A0
:100090000C9413010C9413010C9413010C94130190
:1000A0000C9413010C9413010C9413010C94130180
:1000B0000C9413010C9413010C9413010C94130170
:1000C0000C9413010C9413010C9413016E616E00D7
:1000D0004E414E00696E6600494E460000407A105F
:1000E000F35A00A0724E18090010A5D4E80000E8E9
:1000F0007648170000E40B54020000CA9A3B000047
:1001000000E1F505000080969800000040420F00D5
:100110000000A08601000000102700000000E80396
:10012000000000006400000000000A000000000061
:100130000100000000002C76D888DC674F0823DF20
:10014000C1DFAE59E1B1B796E5E3E453C63AE651F3
:10015000997696E8E6C28426EB898C9B62ED407C1A
:100160006FFCEFBC9C9F40F2BAA56FA5F490055AB6
:100170002AF75C936B6CF9676DC11BFCE0E40D47DB
:10018000FEF520E6B500D0ED902E030094357705FE
:100190000080841E080000204E0A000000C80C33B6
:1001A0003333330F986E12831141EF8D2114893B45
:1001B000E65516CFFEE6DB18D1844B381BF77C1DC5
:1001C000901DA4BBE424203284725E228100C9F118
:1001D00024ECA1E53D2711241FBECFEFD1E2DEBF05
:1001E000CDBF14BE88E10FB6F894809360001092E2
:1001F00060000FBE12E0A0E0B2E0E6E0FDE000E04B
:100200000BBF02C007900D92AE30B107D9F712E0D4
:10021000AEE0B2E001C01D92AE30B107E1F70E943E
:1002200015010C9482060C940000CFEFD1E2DEBFE2
:10023000CDBF0E94210180E092E00E9445030C9412
:10024000820654985C9A9A9A559A8FEF87B90E94C1
:10025000180308959C012115310539F080EA9FE0CB
:100260000197F1F721503040F6CF08959C012115F8
:10027000310539F084E090E00197F1F721503040EA
:10028000F6CF089589B1992724E0969587952A9508
:10029000E1F721E02827822F992781709070089537
:1002A0000E9442018823E1F38EE190E00E942A013E
:1002B0000E9442018823E1F78EE190E00E942A012A
:1002C0000895A29A0895A298089584B394E0892786
:1002D00084BB0895482F8230A0F1425061307105EF
:1002E00031F16130710520F06230710581F00895BF
:1002F00081E090E002C0880F991F4A95E2F7982F9D
:10030000909581B1892381B982B189230EC021E002
:1003100030E002C0220F331F4A95E2F7922F9095EA
:1003200081B1892381B982B1822B82B908959B0161
:1003300002C0220F331F4A95E2F781B1822B81B9A7
:100340000895813091F46130710569F06130710573
:1003500020F06230710521F0089527982F980895B4
:1003600027982F9A0895279A0895882389F4613051
:10037000710569F06130710520F06230710521F07E
:10038000089524982C98089524982C9A0895249AD6
:100390000895AC01282F332720FF02C0249A01C002
:1003A000249821FF02C0279A01C02798CA01969578
:1003B00087959695879581B90895249905C080FF02
:1003C00002C02C9A01C02C98279905C081FF02C059
:1003D0002F9A01C02F989695879596958795A1E0BD
:1003E000B0E0E82FFF2740E050E067E081B19927B7
:1003F000042E02C0959587950A94E2F7817090705B
:100400008A179B07C1F0CF01042E02C095958795EE
:100410000A94E2F79D01042E02C0220F331F0A94B2
:10042000E2F780FF03C082B1822B04C0922F909527
:1004300082B1892382B961504F5F5F4F67FFD6CF8A
:100440000895282F8230B8F080B1482F55273327E0
:100450002250304081E090E0022E02C0880F991FA8
:100460000A94E2F74823592302C0559547952A95E7
:10047000E2F7842F09C0813049F483B19927880FAE
:10048000892F881F990B919599270895882351F4F6
:1004900083B199278071907054E0959587955A950E
:1004A000E1F7F2CF0895282F6623B9F0223068F0E3
:1004B000822F9927029721E030E002C0220F331FDC
:1004C0008A95E2F782B1822B18C0213011F42F9A5D
:1004D00008952223D9F42C9A0895223080F03327EE
:1004E0002250304081E090E002C0880F991F2A9589
:1004F000E2F7982F909582B1892382B9089521302F
:1005000011F42F980895222309F42C9808959C0142
:10051000969587959695879582B945B14F76822FA6
:1005200099279C01E6E0220F331FEA95E1F7207836
:1005300030708170907074E0880F991F7A95E1F7A0
:10054000822B482B45B9089580B1282F3327220FDD
:10055000331F220F331F83B19927880F892F881FDC
:10056000990B9195880F991F282B392B83B19927C7
:1005700080719070A4E095958795AA95E1F7822BFC
:10058000932B0895823068F0282F33272250304073
:1005900081E090E002C0880F991F2A95E2F780B9A8
:1005A0000895813019F480E883B90895882311F4FF
:1005B00080E183B9089588E190E028E00FB6F894CF
:1005C000A895809360000FBE20936000FFCF982F06
:1005D00096959575880F8A7A892B982F969596957A
:1005E0009373880F880F8C7C892B8295F8945E9A80
:1005F00088B981E090E00E9436015E987894089571
:100600005F980E94E70284E690E00E943601089518
:1006100081E00E94000384EE9CE00E943601089570
:100620008CE00E940003089588E00E940003089572
:10063000569A579A5E988FE090E00E942A0188E3CC
:100640000E94000384E293E10E94360188E30E9445
:10065000000382E390E00E94360188E30E940003D9
:1006600088E30E9400030E9414030E94080386E0AE
:100670000E9400030E94100308955F9A0E94E702FF
:1006800082E390E00E94360108951F93CF93DF9399
:10069000EC0110E08881882369F0FE01E10FF11D73
:1006A0001F5F80810E943D03FE01E10FF11D8081EB
:1006B000882399F7DF91CF911F9108950F931F938E
:1006C000182F04E6602F0E94DD04805D0E943D0328
:1006D000812F602F0E94DD040AE0892F602F0E9485
:1006E000DD04805D0E943D03812F602F0E94DD04A8
:1006F000892F805D0E943D031F910F910895CF9334
:10070000C82F8A3098F0843630F064E60E94DD0409
:10071000805D0E943D038C2F64E60E94DD04892FDA
:100720006AE00E94DD04805D0E943D038C2F6AE038
:100730000E94DD04892F805D0E943D03CF910895C2
:10074000CF93C82F87FD05C08BE20E943D038C2FFD
:1007500005C08DE20E943D038C2F81950E945E03AF
:10076000CF910895CF93C82F87FD05C08BE20E94DB
:100770003D038C2F05C08DE20E943D038C2F819597
:100780000E947F03CF910895EF92FF920F931F93E2
:100790007C0100E117E2B8010E94E904CB01805D11
:1007A0000E943D03C701B8010E94E90408EE13E06E
:1007B000B8010E94E904CB01805D0E943D03C7019E
:1007C000B8010E94E90404E610E0B8010E94E904BF
:1007D000CB01805D0E943D03C701B8010E94E9047E
:1007E0000AE010E0B8010E94E904CB01805D0E949C
:1007F0003D03C701B8010E94E904805D0E943D03EA
:100800001F910F91FF90EF900895CF93DF93EC012C
:100810008A309105D8F18436910558F183E0C83EBD
:10082000D807D0F087E2C031D80748F0CE0160E1A8
:1008300077E20E94E904CB01805D0E943D03CE0176
:1008400060E177E20E94E90468EE73E00E94E90447
:10085000CB01805D0E943D03CE0168EE73E00E94F3
:10086000E90464E670E00E94E904CB01805D0E9427
:100870003D03CE0164E670E00E94E9046AE070E0A6
:100880000E94E904CB01805D0E943D03CE016AE035
:1008900070E00E94E904805D0E943D03DF91CF91EA
:1008A0000895CF93DF93EC0197FD05C08BE20E9482
:1008B0003D03CE0107C08DE20E943D0388279927A2
:1008C0008C1B9D0B0E94C403DF91CF910895CF93A1
:1008D000DF93EC0197FD05C08BE20E943D03CE0142
:1008E00007C08DE20E943D03882799278C1B9D0B32
:1008F0000E940504DF91CF9108958F708A3010F423
:10090000805D01C0895C0E943D0308951F93182FEC
:1009100082958F700E947D04812F0E947D041F911B
:1009200008950F931F938C01892F992782958F70BB
:100930000E947D04812F99270E947D04802F82953B
:100940008F700E947D04802F0E947D041F910F9163
:100950000895AAE0B0E0EFEAF4E00C940B05DC01A6
:10096000CB0100E010E023E030E0AE014F5F5F4FCD
:10097000BC01CD010E943405CE0101960E944503C1
:10098000E4E02A960C94270580E80E94000308956D
:1009900080EC0E9400030895282F332746E0220FA1
:1009A000331F4A95E1F7862F61E10E94DD04892F0C
:1009B000822B80680E9400030895991B79E004C08F
:1009C000991F961708F0961B881F7A95C9F780958E
:1009D0000895AA1BBB1B51E107C0AA1FBB1FA61786
:1009E000B70710F0A61BB70B881F991F5A95A9F7D8
:1009F00080959095BC01CD0108952F923F924F9222
:100A00005F926F927F928F929F92AF92BF92CF929E
:100A1000DF92EF92FF920F931F93CF93DF93CDB7A7
:100A2000DEB7CA1BDB0B0FB6F894DEBF0FBECDBF1F
:100A300009942A88398848885F846E847D848C84F0
:100A40009B84AA84B984C884DF80EE80FD800C81F9
:100A50001B81AA81B981CE0FD11D0FB6F894DEBFDC
:100A60000FBECDBFED010895EF92FF920F931F933C
:100A7000CF937A01C22F102F283008F0C7E000E092
:100A80002C2FA7010E94A305482FF701D7016D91D4
:100A9000562F262F332720FF04C023FD02C08DE2EE
:100AA0000AC0812F992781FF02C08BE203C080FF1B
:100AB00004C080E2F7018083FD0123FF03C0ACEC9A
:100AC000B0E004C022FF09C0A4EDB0E012FD14960E
:100AD000BD01CF010E947B062FC08D918193813390
:100AE00011F0562F5F7ECC2339F09EE28D919193C9
:100AF000982FC150D9F78193DF01319612FF02C0C0
:100B000085E401C085E68C9347FF04C08DE28193A4
:100B1000419508C0442321F454FF02C08DE201C076
:100B20008BE28193C0E34A301CF0CF5F4A50FBCF89
:100B3000C193405D41931082C701CF911F910F91E6
:100B4000FF90EF900895283008F027E03327DA016E
:100B5000990F311D87FD916000966105710539F48B
:100B600032602E5F3D9330E32A95E1F708959F3F71
:100B700030F080387105610509F03C5F3C5F3D93C2
:100B8000913008F08068911DDF93CF931F930F93EE
:100B9000FF92EF92192F987F9695E92F969596954B
:100BA000E90FFF27EA5CFE4F99273327EE24FF2445
:100BB000A701E70105900894079428F4360FE71E73
:100BC000F81E491F511D660F771F881F991F069435
:100BD000A1F70590079428F4E70EF81E491F561F49
:100BE000C11D770F881F991F661F0694A1F70590F6
:100BF000079428F4F80E491F561FC71FD11D880FF0
:100C0000991F661F771F0694A1F70590079420F49B
:100C1000490F561FC71FD81F990F661F771F881FC0
:100C20000694A9F784911095177041F0D695C79551
:100C300057954795F794E7941A95C1F7ECEDF0E0D6
:100C400068941590159135916591959105907FE285
:100C50007395E118F10A430B560BC90BD009C0F785
:100C6000E10CF11E431F561FC91FD01D7EF47033C7
:100C700011F48A95E6CFE894015030F0080F0AF499
:100C80000027021708F4202F2395022F7A3328F02B
:100C900079E37D932A95E9F710C07D932A9589F62B
:100CA000069497956795379517951794E118F10A6B
:100CB000430B560BC90BD00998F023957E91739581
:100CC0007A3308F070E37C932013B8F77E9170615B
:100CD0007D9330F0839571E37D9370E32A95E1F77E
:100CE0001124EF90FF900F911F91CF91DF919927E1
:100CF00087FD90950895FB01DC0105900D92002081
:060D0000E1F70895FFCFAA
:0E0D060048656C6C6F20576F726C64210000A2
:00000001FF
