:100000000C94FA000C9422010C9422010C9422010D
:100010000C9422010C9422010C9422010C942201D4
:100020000C9422010C9422010C9422010C942201C4
:100030000C9422010C9422010C9422010C942201B4
:100040000C9422010C9422010C9422010C942201A4
:100050000C9422010C9422010C9422010C94220194
:100060000C9422010C9422010C9422010C94220184
:100070000C9422010C9422010C9422010C94220174
:100080000C9422010C9422010C942C080C94220153
:100090000C9422010C9422010C9422010C94220154
:1000A0000C9422010C9422010C9422010C94220144
:1000B0000C9422010C9422010C9422010C94220134
:1000C0000C9422010C94E9010C94220105A84CCD5A
:1000D000B2D44EB93836A9020C50B9918688083C82
:1000E000A6AAAA2ABE000000803F6E616E004E41A3
:1000F0004E00696E6600494E460000407A10F35A81
:1001000000A0724E18090010A5D4E80000E8764857
:10011000170000E40B54020000CA9A3B000000E103
:10012000F505000080969800000040420F00000096
:10013000A08601000000102700000000E803000076
:1001400000006400000000000A0000000000010040
:10015000000000002C76D888DC674F0823DFC1DF61
:10016000AE59E1B1B796E5E3E453C63AE651997664
:1001700096E8E6C28426EB898C9B62ED407C6FFC9E
:10018000EFBC9C9F40F2BAA56FA5F490055A2AF7E0
:100190005C936B6CF9676DC11BFCE0E40D47FEF5E9
:1001A00020E6B500D0ED902E030094357705008051
:1001B000841E080000204E0A000000C80C333333B0
:1001C000330F986E12831141EF8D2114893BE65550
:1001D00016CFFEE6DB18D1844B381BF77C1D901D33
:1001E000A4BBE424203284725E228100C9F124EC95
:1001F000A1E53D2711241FBECFEFD1E2DEBFCDBF69
:1002000014BE88E10FB6F8948093600010926000ED
:100210000FBE12E0A0E0B2E0E4EEF8E100E00BBFB8
:1002200002C007900D92A431B107D9F712E0A4E102
:10023000B2E001C01D92AE33B107E1F70E940203A4
:100240000C94710C0C94000081E0809320018AE0F2
:10025000809321018091730088608093730061E036
:1002600070E089E090E00E94B80361E070E088E00F
:1002700090E00E94B80361E070E085E090E00E94A9
:10028000B80361E070E084E090E00E94B80361E0B0
:1002900070E087E090E00E94B80361E070E086E0E3
:1002A00090E00E94B80361E070E082E090E00E947C
:1002B000B80361E070E083E090E00E94B803089525
:1002C000AC0142505040662359F081E090E002C0FA
:1002D000880F991F4A95E2F722B1282B22B9089579
:1002E00081E090E002C0880F991F4A95E2F7982FAD
:1002F000909582B1892382B908958330910561F088
:100300008430910518F4029751F0089586309105D4
:1003100061F0079739F0089560931402089560938F
:1003200015020895609316020895609317020895C8
:10033000CF93DF93EC0183309105F9F08430910580
:1003400030F48130910571F00297A8F409C085302E
:10035000910501F185309105A0F0069721F136C095
:1003600061E019C061E086E090E00E94600160E019
:1003700087E090E029C061E005C061E082E090E0A4
:100380001FC060E083E090E00E94600160E082E0D6
:1003900090E01AC060E087E090E00E94600160E0B9
:1003A00086E090E011C060E083E090E00E94600190
:1003B00060E082E090E00E94600160E087E090E011
:1003C0000E94600160E0CE010E946001DF91CF9148
:1003D00008951F920F920FB60F9211242F933F93FF
:1003E0004F935F936F937F938F939F93AF93BF933D
:1003F000EF93FF93809118028F5F809318028436E9
:10040000D9F41092180261E089E090E00E94600146
:1004100061E089E090E00E94600161E088E090E0A6
:100420000E94600161E085E090E00E94600161E06F
:1004300084E090E00E946001909114028091180283
:10044000981729F460E089E090E00E9460019091A3
:10045000150280911802981729F460E088E090E076
:100460000E9460019091160280911802981729F459
:1004700060E085E090E00E94600190911702809119
:100480001802981729F460E084E090E00E9460016F
:10049000FF91EF91BF91AF919F918F917F916F915C
:1004A0005F914F913F912F910F900FBE0F901F9032
:1004B00018951F93182F18162CF481E090E00E94D5
:1004C000980107C087FF0CC080E090E00E9498016F
:1004D0001F77612F87E090E00E947D01612F06C0A9
:1004E00060E087E090E00E947D0160E086E090E0BF
:1004F0000E947D011F9108951F93182F18162CF448
:1005000082E090E00E94980107C087FF0CC083E062
:1005100090E00E9498011F77612F83E090E00E9495
:100520007D01612F06C060E083E090E00E947D01C4
:1005300060E082E090E00E947D011F910895EF92BB
:10054000FF920F931F930F2EF0E0EF2EF0E0FF2E9F
:10055000F0E00F2FF0E01F2FF02D2BED3FE049E4EE
:1005600050E4C801B7010E94F709181654F40F2E81
:10057000F0E0EF2EF0E0FF2EF0E00F2FF0E01F2F65
:10058000F02DC801B7010E943909DC01CB0120E040
:1005900030E040E252E4BC01CD010E94FB09DC01E5
:1005A000CB01BC01CD010E943C09DC01CB010E94C2
:1005B0005902C801B7010E945E0ADC01CB0120E0AC
:1005C00030E040E252E4BC01CD010E94FB09DC01B5
:1005D000CB01BC01CD010E943C09DC01CB010E9492
:1005E0007C028AE090E00E9478032DEC3CEC4CEC1D
:1005F0005DE3C801B7010E94D508DC01CB017C0195
:100600008D01ABCFCFEFD1E2DEBFCDBF0E946B0338
:100610000E94B4080E94240180E00E94590280E0F8
:100620000E947C020E94560580E092E00E949305A1
:100630000E9416078AE092E00E9493050E949E03A2
:1006400080E00E94590280E00E947C020E945605D0
:100650008BE092E00E9493050E9416078BE092E0E7
:100660000E9493050E949E0382E30E94590282E346
:100670000E947C020E9456058DE092E00E94930544
:100680000E9416078DE092E00E9493050E949E034F
:1006900084E10E94590284E10E947C020E94560576
:1006A00080E192E00E9493050E94160780E192E0AB
:1006B000C3CF8FEF90E00E944C0780EA90E00E9449
:1006C000860708958FEF90E00E944C0780EA90E043
:1006D0000E948607089554985C9A9A9A559A8FEFCB
:1006E00087B90E9466050E942B070E94B4080895EE
:1006F0009C012115310539F080EA9FE00197F1F75F
:1007000021503040F6CF08959C012115310539F074
:1007100084E090E00197F1F721503040F6CF089542
:1007200089B1992724E0969587952A95E1F721E0EC
:100730002827822F99278170907008950E94900336
:100740008823E1F38EE190E00E9478030E949003F9
:100750008823E1F78EE190E00E9478030895A29A41
:100760000895A298089584B394E0892784BB0895DE
:10077000482F8230A0F142506130710531F1613073
:10078000710520F06230710581F0089581E090E0FC
:1007900002C0880F991F4A95E2F7982F909581B172
:1007A000892381B982B189230EC021E030E002C0E3
:1007B000220F331F4A95E2F7922F909581B189233A
:1007C00081B982B1822B82B908959B0102C0220FA8
:1007D000331F4A95E2F781B1822B81B908958130A8
:1007E00091F46130710569F06130710520F062307B
:1007F000710521F0089527982F98089527982F9A2A
:100800000895279A0895882389F46130710569F065
:100810006130710520F06230710521F0089524984F
:100820002C98089524982C9A0895249A0895AC0140
:10083000282F332720FF02C0249A01C0249821FFCB
:1008400002C0279A01C02798CA0196958795969568
:10085000879581B90895249905C080FF02C02C9A1C
:1008600001C02C98279905C081FF02C02F9A01C0B2
:100870002F989695879596958795A1E0B0E0E82FFB
:10088000FF2740E050E067E081B19927042E02C0C5
:10089000959587950A94E2F7817090708A179B0767
:1008A000C1F0CF01042E02C0959587950A94E2F716
:1008B0009D01042E02C0220F331F0A94E2F780FF2D
:1008C00003C082B1822B04C0922F909582B18923FC
:1008D00082B961504F5F5F4F67FFD6CF0895282FD1
:1008E0008230B8F080B1482F55273327225030404E
:1008F00081E090E0022E02C0880F991F0A94E2F76F
:100900004823592302C0559547952A95E2F7842F2D
:1009100009C0813049F483B19927880F892F881F36
:10092000990B919599270895882351F483B19927BC
:100930008071907054E0959587955A95E1F7F2CFC4
:100940000895282F6623B9F0223068F0822F992766
:10095000029721E030E002C0220F331F8A95E2F7B0
:1009600082B1822B18C0213011F42F9A08952223CE
:10097000D9F42C9A0895223080F033272250304049
:1009800081E090E002C0880F991F2A95E2F7982F26
:10099000909582B1892382B90895213011F42F985E
:1009A0000895222309F42C9808959C019695879523
:1009B0009695879582B945B14F76822F99279C01EC
:1009C000E6E0220F331FEA95E1F72078307081705E
:1009D000907074E0880F991F7A95E1F7822B482B6D
:1009E00045B9089580B1282F3327220F331F220FD6
:1009F000331F83B19927880F892F881F990B9195F1
:100A0000880F991F282B392B83B1992780719070FB
:100A1000A4E095958795AA95E1F7822B932B0895ED
:100A2000823068F0282F33272250304081E090E058
:100A300002C0880F991F2A95E2F780B90895813086
:100A400019F480E883B90895882311F480E183B90B
:100A5000089588E190E028E00FB6F894A895809377
:100A600060000FBE20936000FFCF982F969595757C
:100A7000880F8A7A892B982F969596959373880F6D
:100A8000880F8C7C892B8295F8945E9A88B981E0D6
:100A900090E00E9484035E98789408955F980E9485
:100AA000350584E690E00E948403089581E00E9469
:100AB0004E0584EE9CE00E94840308958CE00E9421
:100AC0004E05089588E00E944E050895569A579A5B
:100AD0005E988FE090E00E94780388E30E944E05C4
:100AE00084E293E10E94840388E30E944E0582E33E
:100AF00090E00E94840388E30E944E0588E30E94F0
:100B00004E050E9462050E94560586E00E944E0531
:100B10000E945E0508955F9A0E94350582E390E089
:100B20000E94840308951F93CF93DF93EC0110E09C
:100B30008881882369F0FE01E10FF11D1F5F80812C
:100B40000E948B05FE01E10FF11D8081882399F73A
:100B5000DF91CF911F9108950F931F93182F04E6F3
:100B6000602F0E94CC0A805D0E948B05812F602F30
:100B70000E94CC0A0AE0892F602F0E94CC0A805D77
:100B80000E948B05812F602F0E94CC0A892F805DE7
:100B90000E948B051F910F910895CF93C82F8A3023
:100BA00098F0843630F064E60E94CC0A805D0E94A2
:100BB0008B058C2F64E60E94CC0A892F6AE00E9484
:100BC000CC0A805D0E948B058C2F6AE00E94CC0AC3
:100BD000892F805D0E948B05CF910895CF93C82FF8
:100BE00087FD05C08BE20E948B058C2F05C08DE22E
:100BF0000E948B058C2F81950E94AC05CF910895A2
:100C0000CF93C82F87FD05C08BE20E948B058C2FE8
:100C100005C08DE20E948B058C2F81950E94CD0529
:100C2000CF910895EF92FF920F931F937C0100E103
:100C300017E2B8010E94D80ACB01805D0E948B05A3
:100C4000C701B8010E94D80A08EE13E0B8010E945B
:100C5000D80ACB01805D0E948B05C701B8010E94B4
:100C6000D80A04E610E0B8010E94D80ACB01805DE2
:100C70000E948B05C701B8010E94D80A0AE010E063
:100C8000B8010E94D80ACB01805D0E948B05C70184
:100C9000B8010E94D80A805D0E948B051F910F91B8
:100CA000FF90EF900895CF93DF93EC018A30910588
:100CB000D8F18436910558F183E0C83ED807D0F0CA
:100CC00087E2C031D80748F0CE0160E177E20E94A8
:100CD000D80ACB01805D0E948B05CE0160E177E2EE
:100CE0000E94D80A68EE73E00E94D80ACB01805DAA
:100CF0000E948B05CE0168EE73E00E94D80A64E67C
:100D000070E00E94D80ACB01805D0E948B05CE0165
:100D100064E670E00E94D80A6AE070E00E94D80A97
:100D2000CB01805D0E948B05CE016AE070E00E94DD
:100D3000D80A805D0E948B05DF91CF910895CF93F3
:100D4000DF93EC0197FD05C08BE20E948B05CE017D
:100D500007C08DE20E948B05882799278C1B9D0B6D
:100D60000E941206DF91CF910895CF93DF93EC019B
:100D700097FD05C08BE20E948B05CE0107C08DE276
:100D80000E948B05882799278C1B9D0B0E94530678
:100D9000DF91CF9108958F708A3010F4805D01C08B
:100DA000895C0E948B0508951F93182F82958F7080
:100DB0000E94CB06812F0E94CB061F9108950F93AE
:100DC0001F938C01892F992782958F700E94CB06E3
:100DD000812F99270E94CB06802F82958F700E94C9
:100DE000CB06802F0E94CB061F910F910895AAE099
:100DF000B0E0EDEFF6E00C94FA0ADC01CB0100E084
:100E000010E023E030E0AE014F5F5F4FBC01CD0149
:100E10000E94230BCE0101960E949305E4E02A96DE
:100E20000C94160B80E80E944E05089580EC0E94F9
:100E30004E050895282F332746E0220F331F4A9589
:100E4000E1F7862F61E10E94CC0A892F822B80680E
:100E50000E944E05089581E0809380008BE080938E
:100E600081008DB1806C8DB9259A80918000806859
:100E70008093800010928900109288008DB18C6060
:100E80008DB9269A809180008062809380001092B4
:100E90008B0010928A0008958F3729F410928800F1
:100EA0006D9A759808956D98759A282F332787FF46
:100EB00009C08EB18F7380688EB9220F331F822FC5
:100EC0008F5F0AC08EB18F7380648EB98FE790E018
:100ED000821B930B880F991F80938800089580933D
:100EE00088008EB18F738EB908956D9B03C080E02A
:100EF00090E008958CB1992725E0969587952A95DD
:100F0000E1F7809590958170907008958F3729F45E
:100F100010928A006C9A749808956C98749A282F8D
:100F2000332787FF09C08EB1837F84608EB9220F7B
:100F3000331F822F8F5F0AC08EB1837F88608EB986
:100F40008FE790E0821B930B880F991F80938A0094
:100F5000089580938A008EB1837F8EB908956C9B2B
:100F600003C080E090E008958CB1992734E0969515
:100F700087953A95E1F780959095817090700895E6
:100F8000873028F4E82FFF27E95CFD4F6083089540
:100F9000873030F5E82FFF27DF01AE0FBF1FAD010F
:100FA000455E5D4FE95CFD4F8081282F3327862FFA
:100FB000992780589040289FB001299F700D389F35
:100FC000700D11249B012854344FFA013183208382
:100FD000A75DBD4F82E596E1821B930B8D939C9399
:100FE0000895873030F5E82FFF27DF01AE0FBF1FD0
:100FF000AD01455E5D4FE95CFD4F8081282F3327B1
:10100000862F992787FD9095289FB001299F700D05
:10101000389F700D11249B012854344FFA013183FD
:101020002083A75DBD4F82E596E1821B930B8D93D4
:101030009C930895873078F4E82FFF27EE0FFF1F69
:10104000DF01A55EBD4F1D921C92E75DFD4F82E55D
:1010500096E19183808308951F920F920FB60F92AD
:1010600011242F933F938F939F93EF93FF9380913E
:101070001A028130E1F418B85D9A8A95F1F75D980B
:1010800080911902E82FFF27EE0FFF1FE75DFD4F4C
:1010900080919C0090919D0020813181820F931F4F
:1010A00090939D0080939C0010921A0252C08091F0
:1010B00019028F5F8093190280911902873010F016
:1010C0001092190280911902E82FFF27EE0FFF1FDF
:1010D000E55EFD4F80819181892B39F120911902C4
:1010E00081E090E002C0880F991F2A95E2F788B945
:1010F0005D9A81E08A95F1F75D9880911902E82F59
:10110000FF27EE0FFF1FE55EFD4F80919C00909141
:101110009D0020813181820F931F90939D008093C9
:101120009C0081E080931A0214C080911902E82F7C
:10113000FF27EE0FFF1FE75DFD4F80919C00909110
:101140009D0020813181820F931F90939D00809399
:101150009C00FF91EF919F918F913F912F910F9064
:101160000FBE0F901F901895CF93C0E08C2F0E9458
:101170001A0868E070E08C2F0E94C007CF5FC7306C
:10118000A8F318B85D9A81E08A95F1F75D9880918F
:1011900091008260809391008091710088608093BB
:1011A00071007894CF9108955058BB27AA270ED08C
:1011B000D3C09CD030F0A1D020F031F49F3F11F487
:1011C0001EF491C00EF4E095E7FB87C0E92FE6D04E
:1011D00080F3BA17620773078407950718F071F454
:1011E0009EF5FEC00EF4E0950B2EBA2FA02D0B013C
:1011F000B90190010C01CA01A0011124FF27591B5C
:1012000099F0593F50F4503E68F11A16F040A22F61
:10121000232F342F4427585FF3CF469537952795D2
:10122000A795F0405395C9F77EF41F16BA0B620BD1
:10123000730B840BBAF09150A1F0FF0FBB1F661F18
:10124000771F881FC2F70EC0BA0F621F731F841F5B
:1012500048F4879577956795B795F7959E3F08F081
:10126000B3CF9395880F08F09927EE0F9795879540
:1012700008954BD0E39581C004D06894B111B1C0FA
:10128000089594D088F09F5790F0B92F9927B751BF
:10129000A0F0D1F0660F771F881F991F1AF0BA953A
:1012A000C9F712C0B13081F09BD0B1E0089598C069
:1012B000672F782F8827B85F39F0B93FCCF3869530
:1012C00077956795B395D9F73EF49095809570958D
:1012D00061957F4F8F4F9F4F089597F99F6780E8E3
:1012E00070E060E008959FEF80EC089500240A9478
:1012F0001616170618060906089500240A941216F1
:101300001306140605060895EECF50D0E8F3E894CE
:10131000E0E0BB279F57F0F02AED3FE049EC06C024
:10132000EE0FBB0F661F771F881F28F0B23A6207C7
:101330007307840728F0B25A620B730B840BE39592
:101340009A9572F7803830F49A95BB0F661F771F15
:10135000881FD2F79048DEC0092E0394000C11F4C8
:10136000882352F0BB0F40F4BF2B11F460FF04C080
:101370006F5F7F4F8F4F9F4F0895EF93E0FF06C041
:10138000A2EA2AED3FE049EC5FEB20DFE5DF0F90BA
:10139000039401FC9058ECECF0E0C8C057FD905865
:1013A000440F551F59F05F3F71F04795880F97FB29
:1013B000991F61F09F3F79F08795089512161306E3
:1013C0001406551FF2CF4695F1DF08C01616170612
:1013D0001806991FF1CF8695710561050894089547
:1013E000E894BB2766277727CB0197F908956CD03F
:1013F00008F48FEF08950BD0AFCF78DF28F07DDFB2
:1014000018F0952309F069CF6ECF1124EACFC6DF1B
:10141000A0F3959FD1F3950F50E0551F629FF00107
:10142000729FBB27F00DB11D639FAA27F00DB11D60
:10143000AA1F649F6627B00DA11D661F829F2227E9
:10144000B00DA11D621F739FB00DA11D621F839F70
:10145000A00D611D221F749F3327A00D611D231F46
:10146000849F600D211D822F762F6A2F11249F5794
:1014700050408AF0E1F088234AF0EE0FFF1FBB1FB7
:10148000661F771F881F91505040A9F79E3F510556
:1014900070F023CFA6CF5F3FECF3983EDCF3869548
:1014A00077956795B795F795E7959F5FC1F7FE2B01
:1014B000880F911D9695879597F908959F9325DF3D
:1014C0000F9007FCEE5F59CF990F0008550FAA0B3C
:1014D000E0E8FEEF16161706E807F907C0F0121647
:1014E0001306E407F50798F0621B730B840B950B4A
:1014F00039F40A2661F0232B242B252B21F408959F
:101500000A2609F4A140A6958FEF811D811D08953B
:101510009F3F31F0915020F4879577956795B79567
:10152000880F911D9695879597F908959F938F93AE
:101530007F936F93FF93EF939B01AC015CDFEF917F
:10154000FF9105D02F913F914F915F9154CFDF9341
:10155000CF931F930F93FF92EF92DF927B018C0149
:10156000689405C0DA2EEF0152DFFE01E894A591E0
:101570002591359145915591AEF3EF0127DEFE019E
:101580009701A801DA9479F7DF90EF90FF900F911F
:101590001F91CF91DF910895991B79E004C0991FA5
:1015A000961708F0961B881F7A95C9F780950895BD
:1015B000AA1BBB1B51E107C0AA1FBB1FA617B70779
:1015C00010F0A61BB70B881F991F5A95A9F7809595
:1015D0009095BC01CD0108952F923F924F925F925A
:1015E0006F927F928F929F92AF92BF92CF92DF9233
:1015F000EF92FF920F931F93CF93DF93CDB7DEB798
:10160000CA1BDB0B0FB6F894DEBF0FBECDBF09942B
:101610002A88398848885F846E847D848C849B8482
:10162000AA84B984C884DF80EE80FD800C811B8190
:10163000AA81B981CE0FD11D0FB6F894DEBF0FBEBF
:10164000CDBFED010895EF92FF920F931F93CF93BB
:101650007A01C22F102F283008F0C7E000E02C2FAD
:10166000A7010E94920B482FF701D7016D91562FC9
:10167000262F332720FF04C023FD02C08DE20AC0BD
:10168000812F992781FF02C08BE203C080FF04C035
:1016900080E2F7018083FD0123FF03C0AAEEB0E0E2
:1016A00004C022FF09C0A2EFB0E012FD1496BD01F4
:1016B000CF010E946A0C2FC08D918193813311F06C
:1016C000562F5F7ECC2339F09EE28D919193982F17
:1016D000C150D9F78193DF01319612FF02C085E432
:1016E00001C085E68C9347FF04C08DE2819341954C
:1016F00008C0442321F454FF02C08DE201C08BE2F4
:101700008193C0E34A301CF0CF5F4A50FBCFC193B6
:10171000405D41931082C701CF911F910F91FF90BF
:10172000EF900895283008F027E03327DA01990F69
:10173000311D87FD916000966105710539F43260B5
:101740002E5F3D9330E32A95E1F708959F3F30F0F7
:1017500080387105610509F03C5F3C5F3D93913035
:1017600008F08068911DDF93CF931F930F93FF9232
:10177000EF92192F987F9695E92F96959695E90FF8
:10178000FF27EC5AFE4F99273327EE24FF24A701A9
:10179000E70105900894079428F4360FE71EF81E19
:1017A000491F511D660F771F881F991F0694A1F7C7
:1017B0000590079428F4E70EF81E491F561FC11D17
:1017C000770F881F991F661F0694A1F7059007944D
:1017D00028F4F80E491F561FC71FD11D880F991FE7
:1017E000661F771F0694A1F70590079420F4490F10
:1017F000561FC71FD81F990F661F771F881F069493
:10180000A9F784911095177041F0D695C795579513
:101810004795F794E7941A95C1F7EAEFF0E06894DA
:101820001590159135916591959105907FE273958D
:10183000E118F10A430B560BC90BD009C0F7E10CB4
:10184000F11E431F561FC91FD01D7EF4703311F4C3
:101850008A95E6CFE894015030F0080F0AF400278B
:10186000021708F4202F2395022F7A3328F079E30A
:101870007D932A95E9F710C07D932A9589F6069401
:1018800097956795379517951794E118F10A430BCB
:10189000560BC90BD00998F023957E9173957A3336
:1018A00008F070E37C932013B8F77E9170617D930C
:1018B00030F0839571E37D9370E32A95E1F711246D
:1018C000EF90FF900F911F91CF91DF91992787FDA6
:1018D00090950895FB01DC0105900D920020E1F741
:0418E0000895FFCF99
:1018E400476F204E696E6A61210000300035300078
:0418F400323000008E
:00000001FF
