:100000000C94FA000C9422010C9422010C9422010D
:100010000C9422010C9422010C9422010C942201D4
:100020000C9422010C9422010C9422010C942201C4
:100030000C9422010C9422010C9422010C942201B4
:100040000C9422010C9422010C9422010C942201A4
:100050000C9422010C9422010C9422010C94220194
:100060000C9422010C9422010C9422010C94220184
:100070000C9422010C9422010C9422010C94220174
:100080000C9422010C9422010C94710A0C9422010C
:100090000C9422010C9422010C9422010C94220154
:1000A0000C9422010C9422010C9422010C94220144
:1000B0000C9422010C9422010C9422010C94220134
:1000C0000C9422010C94D0010C94220105A84CCD73
:1000D000B2D44EB93836A9020C50B9918688083C82
:1000E000A6AAAA2ABE000000803F6E616E004E41A3
:1000F0004E00696E6600494E460000407A10F35A81
:1001000000A0724E18090010A5D4E80000E8764857
:10011000170000E40B54020000CA9A3B000000E103
:10012000F505000080969800000040420F00000096
:10013000A08601000000102700000000E803000076
:1001400000006400000000000A0000000000010040
:10015000000000002C76D888DC674F0823DFC1DF61
:10016000AE59E1B1B796E5E3E453C63AE651997664
:1001700096E8E6C28426EB898C9B62ED407C6FFC9E
:10018000EFBC9C9F40F2BAA56FA5F490055A2AF7E0
:100190005C936B6CF9676DC11BFCE0E40D47FEF5E9
:1001A00020E6B500D0ED902E030094357705008051
:1001B000841E080000204E0A000000C80C333333B0
:1001C000330F986E12831141EF8D2114893BE65550
:1001D00016CFFEE6DB18D1844B381BF77C1D901D33
:1001E000A4BBE424203284725E228100C9F124EC95
:1001F000A1E53D2711241FBECFEFD1E2DEBFCDBF69
:1002000014BE88E10FB6F8948093600010926000ED
:100210000FBE12E0A0E0B2E0EEE6FDE100E00BBFB1
:1002200002C007900D92A037B107D9F712E0A0E7FE
:10023000B2E001C01D92AA39B107E1F70E9406049D
:100240000C94B60E0C94000081E0809320018AE0AB
:10025000809321018091730088608093730061E036
:1002600070E089E090E00E94B50561E070E088E010
:1002700090E00E94B50561E070E085E090E00E94AA
:10028000B50561E070E084E090E00E94B50561E0B2
:1002900070E087E090E00E94B50561E070E086E0E4
:1002A00090E00E94B50561E070E083E090E00E947C
:1002B000B50561E070E082E090E00E94B505089528
:1002C00099278730910589F0883091051CF40697AD
:1002D00079F008958830910529F0099759F46093D1
:1002E00070020895609371020895609372020895F8
:1002F000609373020895CF93DF93EC0183309105EF
:1003000031F18430910530F48130910579F0029714
:10031000A8F409C085309105A1F18530910510F14F
:10032000069719F13AC061E070E02DC060E070E01E
:1003300083E090E00E949E06BE012BC060E070E06A
:1003400085E090E00E949E0661E070E008C061E0F8
:1003500070E085E090E00E949E0660E070E084E03E
:1003600090E019C060E070E0F4CF60E070E085E0FC
:1003700090E00E949E0660E070E084E090E00E94C1
:100380009E0660E070E083E090E00E949E0660E0E0
:1003900070E082E090E00E949E06DF91CF91089588
:1003A0001F920F920FB60F9211242F933F934F93EA
:1003B0005F936F937F938F939F93AF93BF93EF93CD
:1003C000FF93809174028F5F809374028436D1F41E
:1003D0001092740261E070E089E090E00E949E0655
:1003E00061E070E088E090E00E949E0661E070E0CD
:1003F00087E090E00E949E0661E070E086E090E079
:100400000E949E069091700280917402981731F4B8
:1004100060E070E089E090E00E949E069091710299
:1004200080917402981731F460E070E088E090E009
:100430000E949E069091720280917402981731F486
:1004400060E070E087E090E00E949E069091730269
:1004500080917402981731F460E070E086E090E0DB
:100460000E949E06FF91EF91BF91AF919F918F9156
:100470007F916F915F914F913F912F910F900FBEA0
:100480000F901F9018951F93182F18162CF481E0C9
:1004900090E00E947B0107C087FF0EC080E090E0E3
:1004A0000E947B011195612F87E00E946001612FFE
:1004B00086E00E94600104C085E090E00E947B011C
:1004C0001F9108951F93182F18162CF481E090E0C7
:1004D0000E947B0107C087FF0EC080E090E00E9471
:1004E0007B011195612F87E00E946001612F86E0FA
:1004F0000E94600104C085E090E00E947B011F9192
:1005000008951F93182F18162CF482E090E00E9493
:100510007B0107C087FF0EC083E090E00E947B0153
:100520001195612F89E00E946001612F88E00E948F
:10053000600104C084E090E00E947B011F91089557
:10054000CF93C82F18162CF482E090E00E947B0114
:1005500007C087FF0EC083E090E00E947B01C19539
:100560006C2F88E00E94600160E089E00E946001D9
:1005700004C084E090E00E947B01CF910895CF9366
:10058000C82F18162CF482E090E00E947B0107C06F
:1005900087FF0EC083E090E00E947B01C1956C2F25
:1005A00089E00E94600160E088E00E94600104C070
:1005B00084E090E00E947B01CF910895EF92FF923A
:1005C0000F931F930F2EF0E0EF2EF0E0FF2EF0E0E0
:1005D0000F2FF0E01F2FF02D2BED3FE049E450E40A
:1005E000C801B7010E943C0C181654F40F2EF0E01D
:1005F000EF2EF0E0FF2EF0E00F2FF0E01F2FF02D98
:10060000C801B7010E947E0BDC01CB0120E030E085
:1006100040E252E4BC01CD010E94400CDC01CB0160
:10062000BC01CD010E94810BDC01CB010E94430281
:10063000C801B7010E94A30CDC01CB0120E030E02F
:1006400040E252E4BC01CD010E94400CDC01CB0130
:10065000BC01CD010E94810BDC01CB010E94810213
:100660008AE090E00E9475052DEC3CEC4CEC5DE3DB
:10067000C801B7010E941A0BDC01CB017C018D017E
:10068000ABCF0F931F93082F1127C8010E94910928
:10069000C8010E94CB091F910F9108958FE790E048
:1006A0000E9491098FE790E00E94CB09089560E0D5
:1006B00070E081E090E00E940D0A84E690E00E94E4
:1006C000750560E070E085E090E00E940D0A84E628
:1006D00090E00E94750581E090E00E945F0A85E04D
:1006E00090E00E945F0A08950E94530780E092E024
:1006F0000E9490070E945703089580E197E20E94AC
:10070000750582E30E94410380ED97E00E94750524
:100710000E9453078AE092E00E94900782E30E94C1
:1007200041038AE79DE00E9475058DEC0E9441031C
:100730008CEA9DE0EBCF0E94530782E192E00E9499
:1007400090070E945703089560E070E083E090E016
:100750000E94B5050E94530780E292E00E94900734
:100760000E949B050E9453078BE292E00E94900733
:100770000E948D05892B29F00E948D05892BE1F7B8
:100780000DC083E090E00E946C06892B11F40E945A
:10079000740382E390E00E947505EACF0E9453073C
:1007A00087E392E00E9490070E948D05892B29F033
:1007B0000E948D05892BE1F70DC083E090E00E9437
:1007C0006C06892B11F40E949B0382E390E00E9447
:1007D0007505EACF0E94530782E492E00E949007D9
:1007E0000E948D05892B29F00E948D05892BE1F748
:1007F000B9CF83E090E00E946C06892B11F40E942F
:100800007D0382E390E00E947505EACFCFEFD1E24D
:10081000DEBFCDBF0E9466050E94240180E00E94D9
:10082000430280E00E9481020E94A40388E893E1D1
:100830000E9475050E9453078CE492E00E94900785
:100840000C94B60E8AE00E9443028EE10E9481025F
:1008500004C082E390E00E94750580E090E00E9471
:100860006C06892BB1F380E00E948102089588EF25
:100870000E94810281E090E00E946C06892B39F091
:1008800080E00E94430280E00E948102089582E39A
:1008900090E00E947505EECF80E00E9481028EE11B
:1008A0000E9443020BC082E390E00E94750580E045
:1008B00090E00E94310980389105CCF480E090E00E
:1008C0000E946C06892B79F780E00E94430289E13F
:1008D00090E00E94BF0204C082E390E00E94750590
:1008E00080E090E00E946C06892BB1F3D5CF08958B
:1008F0008EE190E00E94620280E00E94810204C0CA
:1009000082E390E00E94750580E090E00E9431094A
:100910008F379105ACF380E00E94810280E00E9455
:10092000430208958FE790E00E94CB0988EB9BE09B
:100930000E94750584EA90E00E94910908958FE76E
:1009400090E00E94CB098FE790E00E949109089502
:1009500060E070E0CB010E940D0A88EB9BE00E94F2
:10096000750568EC70E080E090E00E940D0A089543
:1009700080E00E9443028EE10E94810204C082E373
:1009800090E00E94750580E090E00E946C06892B43
:10099000B1F38CEE0E94810288EC90E00E94750514
:1009A00080E00E9481028EE190E00E94620204C019
:1009B00082E390E00E94750583E090E00E94310997
:1009C000C297B4F384E690E00E94750580E00E942F
:1009D000430284E10E94810204C082E390E00E940D
:1009E000750580E090E00E946C06892BB1F38CEED7
:1009F0000E94810204C082E390E00E94750583E0BA
:100A000090E00E943109C297B4F386E990E00E9419
:100A1000750580E00E9481020E94A8048EE190E0AA
:100A20000E94620204C082E390E00E94750580E0AB
:100A300090E00E9431098F379105ACF380E00E946D
:100A4000430208956FEF70E080E090E00E940D0A8D
:100A50008CE59FEF0E94910980ED97E00E9475055B
:100A60008FE790E00E94910908950E94530781E565
:100A700092E00E9490070E949B050E9453078CE51C
:100A800092E00E9490078AE00E94810280ED97E048
:100A90000E94750580E00E9481020E949B050E94D1
:100AA000530785E692E00E9490078AE00E94430285
:100AB00080ED97E00E94750580E00E9443020E944D
:100AC00053078BE692E00E949007089554985C9A31
:100AD0009A9A559A8FEF87B90E9463070E9470090E
:100AE0000E94F90A0E94280908959C0121153105E8
:100AF00039F080EA9FE00197F1F721503040F6CFBE
:100B000008959C012115310539F084E090E00197AA
:100B1000F1F721503040F6CF089589B1992724E0AC
:100B2000969587952A95E1F721E02827822F992726
:100B30008170907008950E948D058823E1F38EE105
:100B400090E00E9475050E948D058823E1F78EE1F3
:100B500090E00E9475050895A29A0895A2980895BC
:100B600084B394E0892784BB0895482F8230A0F194
:100B700042506130710531F16130710520F0623011
:100B8000710581F0089581E090E002C0880F991FFF
:100B90004A95E2F7982F909581B1892381B982B166
:100BA00089230EC021E030E002C0220F331F4A9596
:100BB000E2F7922F909581B1892381B982B1822B7E
:100BC00082B908959B0102C0220F331F4A95E2F7B4
:100BD00081B1822B81B90895813091F46130710522
:100BE00069F06130710520F06230710521F00895DF
:100BF00027982F98089527982F9A0895279A08954F
:100C0000882389F46130710569F06130710520F045
:100C10006230710521F0089524982C980895249845
:100C20002C9A0895249A0895AC01282F332720FF89
:100C300002C0249A01C0249821FF02C0279A01C053
:100C40002798CA01969587959695879581B90895B5
:100C5000249905C080FF02C02C9A01C02C982799C6
:100C600005C081FF02C02F9A01C02F9896958795E5
:100C700096958795A1E0B0E0E82FFF2740E050E08F
:100C800067E081B19927042E02C0959587950A9453
:100C9000E2F7817090708A179B07C1F0CF01042E94
:100CA00002C0959587950A94E2F79D01042E02C033
:100CB000220F331F0A94E2F780FF03C082B1822B18
:100CC00004C0922F909582B1892382B961504F5F01
:100CD0005F4F67FFD6CF0895282F8230B8F080B1DC
:100CE000482F552733272250304081E090E0022ED4
:100CF00002C0880F991F0A94E2F74823592302C0C3
:100D0000559547952A95E2F7842F09C0813049F41B
:100D100083B19927880F892F881F990B919599275F
:100D20000895882351F483B199278071907054E01D
:100D3000959587955A95E1F7F2CF0895282F662368
:100D4000B9F0223068F0822F9927029721E030E035
:100D500002C0220F331F8A95E2F782B1822B18C09E
:100D6000213011F42F9A08952223D9F42C9A089552
:100D7000223080F033272250304081E090E002C0E2
:100D8000880F991F2A95E2F7982F909582B18923B1
:100D900082B90895213011F42F980895222309F47F
:100DA0002C9808959C01969587959695879582B97C
:100DB00045B14F76822F99279C01E6E0220F331F21
:100DC000EA95E1F7207830708170907074E0880FB8
:100DD000991F7A95E1F7822B482B45B9089580B188
:100DE000282F3327220F331F220F331F83B1992758
:100DF000880F892F881F990B9195880F991F282B91
:100E0000392B83B1992780719070A4E095958795CF
:100E1000AA95E1F7822B932B0895823068F0282F52
:100E200033272250304081E090E002C0880F991FA4
:100E30002A95E2F780B90895813019F480E883B9E2
:100E40000895882311F480E183B9089588E190E042
:100E500028E00FB6F894A895809360000FBE209309
:100E60006000FFCF982F96959575880F8A7A892B09
:100E7000982F969596959373880F880F8C7C892B65
:100E80008295F8945E9A88B981E090E00E9481058D
:100E90005E98789408955F980E94320784E690E007
:100EA0000E948105089581E00E944B0784EE9CE03A
:100EB0000E94810508958CE00E944B07089588E008
:100EC0000E944B070895569A579A5E988FE090E0DB
:100ED0000E94750588E30E944B0784E293E10E941B
:100EE000810588E30E944B0782E390E00E94810520
:100EF00088E30E944B0788E30E944B070E945F072C
:100F00000E94530786E00E944B070E945B070895EA
:100F10005F9A0E94320782E390E00E948105089563
:100F20001F93CF93DF93EC0110E08881882369F051
:100F3000FE01E10FF11D1F5F80810E948807FE0105
:100F4000E10FF11D8081882399F7DF91CF911F91E7
:100F500008950F931F93182F04E6602F0E94110D20
:100F6000805D0E948807812F602F0E94110D0AE08A
:100F7000892F602F0E94110D805D0E948807812FAC
:100F8000602F0E94110D892F805D0E9488071F919C
:100F90000F910895CF93C82F8A3098F0843630F09F
:100FA00064E60E94110D805D0E9488078C2F64E624
:100FB0000E94110D892F6AE00E94110D805D0E9430
:100FC00088078C2F6AE00E94110D892F805D0E9496
:100FD0008807CF910895CF93C82F87FD05C08BE276
:100FE0000E9488078C2F05C08DE20E9488078C2FF5
:100FF00081950E94A907CF910895CF93C82F87FDAF
:1010000005C08BE20E9488078C2F05C08DE20E94EC
:1010100088078C2F81950E94CA07CF910895EF927F
:10102000FF920F931F937C0100E117E2B8010E9429
:101030001D0DCB01805D0E948807C701B8010E9489
:101040001D0D08EE13E0B8010E941D0DCB01805D5F
:101050000E948807C701B8010E941D0D04E610E038
:10106000B8010E941D0DCB01805D0E948807C70159
:10107000B8010E941D0D0AE010E0B8010E941D0D8C
:10108000CB01805D0E948807C701B8010E941D0D39
:10109000805D0E9488071F910F91FF90EF90089547
:1010A000CF93DF93EC018A309105D8F18436910516
:1010B00058F183E0C83ED807D0F087E2C031D807A6
:1010C00048F0CE0160E177E20E941D0DCB01805D0A
:1010D0000E948807CE0160E177E20E941D0D68EE54
:1010E00073E00E941D0DCB01805D0E948807CE0138
:1010F00068EE73E00E941D0D64E670E00E941D0D15
:10110000CB01805D0E948807CE0164E670E00E94FA
:101110001D0D6AE070E00E941D0DCB01805D0E94F4
:101120008807CE016AE070E00E941D0D805D0E947C
:101130008807DF91CF910895CF93DF93EC0197FD5E
:1011400005C08BE20E948807CE0107C08DE20E9495
:101150008807882799278C1B9D0B0E940F08DF9119
:10116000CF910895CF93DF93EC0197FD05C08BE2FB
:101170000E948807CE0107C08DE20E948807882759
:1011800099278C1B9D0B0E945008DF91CF910895E9
:101190008F708A3010F4805D01C0895C0E948807DE
:1011A00008951F93182F82958F700E94C808812F71
:1011B0000E94C8081F9108950F931F938C01892FD7
:1011C000992782958F700E94C808812F99270E94C5
:1011D000C808802F82958F700E94C808802F0E94B7
:1011E000C8081F910F910895AAE0B0E0EAEFF8E077
:1011F0000C943F0DDC01CB0100E010E023E030E077
:10120000AE014F5F5F4FBC01CD010E94680DCE0162
:1012100001960E949007E4E02A960C945B0D80E80A
:101220000E944B07089580EC0E944B070895282FD9
:10123000332746E0220F331F4A95E1F7862F61E1FD
:101240000E94110D892F822B80680E944B07089500
:1012500080E680937C0080917A00876880937A0092
:101260000895982F883018F08DEB90E0089580E66F
:1012700080937C0080917C00892B80937C008091FE
:101280007A00806480937A0080917A0086FDFCCF9A
:101290008091790099270895982F883018F04DEAA9
:1012A0005BE01CC080E480937C0080917C00892BF3
:1012B00080937C0080917A00806480937A00809192
:1012C0007A0086FDFCCF20917800809179009927E3
:1012D000582F4427822F9927482B592BCA0108954C
:1012E00081E0809380008BE0809381008DB1806CE1
:1012F0008DB9259A8091800080688093800010923B
:101300008900109288008DB18C608DB9269A8091E9
:10131000800080628093800010928B0010928A007F
:1013200008958F3729F4109288006D9A7598089562
:101330006D98759A282F332787FF09C08EB18F7358
:1013400080688EB9220F331F822F8F5F0AC08EB143
:101350008F7380648EB98FE790E0821B930B880FA8
:10136000991F809388000895809388008EB18F73B1
:101370008EB908956D9B03C080E090E008958CB114
:10138000992725E0969587952A95E1F78095909580
:101390008170907008958F3729F410928A006C9AAA
:1013A000749808956C98749A282F332787FF09C082
:1013B0008EB1837F84608EB9220F331F822F8F5F9F
:1013C0000AC08EB1837F88608EB98FE790E0821B60
:1013D000930B880F991F80938A00089580938A0049
:1013E0008EB1837F8EB908956C9B03C080E090E03E
:1013F00008958CB1992734E0969587953A95E1F751
:1014000080959095817090700895873028F4E82F2A
:10141000FF27ED56FD4F60830895873030F5E82FA4
:10142000FF27DF01AE0FBF1FAD0149585D4FED56DD
:10143000FD4F8081282F3327862F99278058904091
:10144000289FB001299F700D389F700D11249B01BA
:101450002854344FFA0131832083AB57BD4F89E2C2
:101460009BE0821B930B8D939C930895873030F5FE
:10147000E82FFF27DF01AE0FBF1FAD0149585D4FB9
:10148000ED56FD4F8081282F3327862F992787FD22
:101490009095289FB001299F700D389F700D1124E1
:1014A0009B012854344FFA0131832083AB57BD4F41
:1014B00089E29BE0821B930B8D939C930895873068
:1014C00078F4E82FFF27EE0FFF1FDF01A958BD4F6B
:1014D0001D921C92EB57FD4F89E29BE09183808324
:1014E00008951F920F920FB60F9211242F933F93DE
:1014F0008F939F93EF93FF93809176028130E1F475
:1015000018B85D9A8A95F1F75D9880917502E82F79
:10151000FF27EE0FFF1FEB57FD4F80919C0090912E
:101520009D0020813181820F931F90939D008093B5
:101530009C001092760252C0809175028F5F80935A
:10154000750280917502873010F0109275028091BB
:101550007502E82FFF27EE0FFF1FE958FD4F80812E
:101560009181892B39F12091750281E090E002C0D0
:10157000880F991F2A95E2F788B95D9A81E08A95CC
:10158000F1F75D9880917502E82FFF27EE0FFF1F9E
:10159000E958FD4F80919C0090919D002081318100
:1015A000820F931F90939D0080939C0081E0809315
:1015B000760214C080917502E82FFF27EE0FFF1FFF
:1015C000EB57FD4F80919C0090919D0020813181CF
:1015D000820F931F90939D0080939C00FF91EF9149
:1015E0009F918F913F912F910F900FBE0F901F9061
:1015F0001895CF93C0E08C2F0E945F0A68E070E0DE
:101600008C2F0E94050ACF5FC730A8F318B85D9AE7
:1016100081E08A95F1F75D988091910082608093D6
:101620009100809171008860809371007894CF91CF
:1016300008955058BB27AA270ED0D3C09CD030F0B5
:10164000A1D020F031F49F3F11F41EF491C00EF4AC
:10165000E095E7FB87C0E92FE6D080F3BA17620771
:1016600073078407950718F071F49EF5FEC00EF419
:10167000E0950B2EBA2FA02D0B01B90190010C01A2
:10168000CA01A0011124FF27591B99F0593F50F4BA
:10169000503E68F11A16F040A22F232F342F442712
:1016A000585FF3CF469537952795A795F04053950A
:1016B000C9F77EF41F16BA0B620B730B840BBAF0DA
:1016C0009150A1F0FF0FBB1F661F771F881FC2F745
:1016D0000EC0BA0F621F731F841F48F48795779559
:1016E0006795B795F7959E3F08F0B3CF9395880F10
:1016F00008F09927EE0F9795879508954BD0E395BD
:1017000081C004D06894B111B1C0089594D088F01C
:101710009F5790F0B92F9927B751A0F0D1F0660FDD
:10172000771F881F991F1AF0BA95C9F712C0B130F8
:1017300081F09BD0B1E0089598C0672F782F88275B
:10174000B85F39F0B93FCCF3869577956795B39537
:10175000D9F73EF490958095709561957F4F8F4FA6
:101760009F4F089597F99F6780E870E060E00895C3
:101770009FEF80EC089500240A94161617061806A9
:101780000906089500240A94121613061406050685
:101790000895EECF50D0E8F3E894E0E0BB279F57E0
:1017A000F0F02AED3FE049EC06C0EE0FBB0F661FDC
:1017B000771F881F28F0B23A62077307840728F062
:1017C000B25A620B730B840BE3959A9572F78038CB
:1017D00030F49A95BB0F661F771F881FD2F7904889
:1017E000DEC0092E0394000C11F4882352F0BB0FC5
:1017F00040F4BF2B11F460FF04C06F5F7F4F8F4F29
:101800009F4F0895EF93E0FF06C0A2EA2AED3FE064
:1018100049EC5FEB20DFE5DF0F90039401FC90586B
:10182000ECECF0E0C8C057FD9058440F551F59F03C
:101830005F3F71F04795880F97FB991F61F09F3FBD
:1018400079F087950895121613061406551FF2CFE6
:101850004695F1DF08C0161617061806991FF1CF36
:1018600086957105610508940895E894BB2766275D
:101870007727CB0197F908956CD008F48FEF08957E
:101880000BD0AFCF78DF28F07DDF18F0952309F07B
:1018900069CF6ECF1124EACFC6DFA0F3959FD1F3B5
:1018A000950F50E0551F629FF001729FBB27F00D0E
:1018B000B11D639FAA27F00DB11DAA1F649F662763
:1018C000B00DA11D661F829F2227B00DA11D621FB2
:1018D000739FB00DA11D621F839FA00D611D221F6C
:1018E000749F3327A00D611D231F849F600D211D50
:1018F000822F762F6A2F11249F5750408AF0E1F0F3
:1019000088234AF0EE0FFF1FBB1F661F771F881F3B
:1019100091505040A9F79E3F510570F023CFA6CFBC
:101920005F3FECF3983EDCF3869577956795B79526
:10193000F795E7959F5FC1F7FE2B880F911D969550
:10194000879597F908959F9325DF0F9007FCEE5F29
:1019500059CF990F0008550FAA0BE0E8FEEF1616B5
:101960001706E807F907C0F012161306E407F50793
:1019700098F0621B730B840B950B39F40A2661F007
:10198000232B242B252B21F408950A2609F4A140AA
:10199000A6958FEF811D811D08959F3F31F09150D5
:1019A00020F4879577956795B795880F911D969543
:1019B000879597F908959F938F937F936F93FF93E4
:1019C000EF939B01AC015CDFEF91FF9105D02F916C
:1019D0003F914F915F9154CFDF93CF931F930F931C
:1019E000FF92EF92DF927B018C01689405C0DA2EA2
:1019F000EF0152DFFE01E894A591259135914591C3
:101A00005591AEF3EF0127DEFE019701A801DA94AC
:101A100079F7DF90EF90FF900F911F91CF91DF91B9
:101A20000895991B79E004C0991F961708F0961B3A
:101A3000881F7A95C9F780950895AA1BBB1B51E1B1
:101A400007C0AA1FBB1FA617B70710F0A61BB70B2E
:101A5000881F991F5A95A9F780959095BC01CD01D3
:101A600008952F923F924F925F926F927F928F9242
:101A70009F92AF92BF92CF92DF92EF92FF920F931D
:101A80001F93CF93DF93CDB7DEB7CA1BDB0B0FB627
:101A9000F894DEBF0FBECDBF09942A8839884888E4
:101AA0005F846E847D848C849B84AA84B984C8847A
:101AB000DF80EE80FD800C811B81AA81B981CE0F71
:101AC000D11D0FB6F894DEBF0FBECDBFED01089556
:101AD000EF92FF920F931F93CF937A01C22F102F93
:101AE000283008F0C7E000E02C2FA7010E94D70D96
:101AF000482FF701D7016D91562F262F332720FF4E
:101B000004C023FD02C08DE20AC0812F992781FF06
:101B100002C08BE203C080FF04C080E2F701808333
:101B2000FD0123FF03C0AAEEB0E004C022FF09C0FC
:101B3000A2EFB0E012FD1496BD01CF010E94AF0EDE
:101B40002FC08D918193813311F0562F5F7ECC236E
:101B500039F09EE28D919193982FC150D9F78193DE
:101B6000DF01319612FF02C085E401C085E68C9347
:101B700047FF04C08DE28193419508C0442321F4BE
:101B800054FF02C08DE201C08BE28193C0E34A3072
:101B90001CF0CF5F4A50FBCFC193405D4193108250
:101BA000C701CF911F910F91FF90EF9008952830BA
:101BB00008F027E03327DA01990F311D87FD916086
:101BC00000966105710539F432602E5F3D9330E374
:101BD0002A95E1F708959F3F30F08038710561053F
:101BE00009F03C5F3C5F3D93913008F08068911DA7
:101BF000DF93CF931F930F93FF92EF92192F987F4C
:101C00009695E92F96959695E90FFF27EC5AFE4F8A
:101C100099273327EE24FF24A701E70105900894B4
:101C2000079428F4360FE71EF81E491F511D660F52
:101C3000771F881F991F0694A1F70590079428F431
:101C4000E70EF81E491F561FC11D770F881F991FE9
:101C5000661F0694A1F70590079428F4F80E491F13
:101C6000561FC71FD11D880F991F661F771F069427
:101C7000A1F70590079420F4490F561FC71FD81FDE
:101C8000990F661F771F881F0694A9F784911095F6
:101C9000177041F0D695C79557954795F794E794F7
:101CA0001A95C1F7EAEFF0E0689415901591359117
:101CB0006591959105907FE27395E118F10A430BC8
:101CC000560BC90BD009C0F7E10CF11E431F561F7C
:101CD000C91FD01D7EF4703311F48A95E6CFE894C5
:101CE000015030F0080F0AF40027021708F4202FE3
:101CF0002395022F7A3328F079E37D932A95E9F72B
:101D000010C07D932A9589F6069497956795379527
:101D100017951794E118F10A430B560BC90BD0091C
:101D200098F023957E9173957A3308F070E37C9355
:101D30002013B8F77E9170617D9330F0839571E345
:101D40007D9370E32A95E1F71124EF90FF900F91B6
:101D50001F91CF91DF91992787FD90950895FB0101
:0E1D6000DC0105900D920020E1F70895FFCF01
:101D6E00494E204E4F524D414C006C6F6F70696E54
:101D7E006700494E204E4F54204E4F524D414C005D
:101D8E00726F626F745265616479004E6F726D612D
:101D9E006C204D6F6465004E6F74204E6F726D61D6
:101DAE006C004E6F20457870616E6400444F4E4556
:101DBE00006D6F746F72207465737400666F727746
:101DCE006172647300726967687400646F6E650097
:00000001FF
