:100000000C94EB000C9413010C9413010C94130149
:100010000C9413010C9413010C9413010C94130110
:100020000C9413010C9413010C9413010C94130100
:100030000C9413010C9413010C9413010C941301F0
:100040000C9413010C9413010C9413010C941301E0
:100050000C9413010C9413010C9413010C941301D0
:100060000C9413010C9413010C9413010C941301C0
:100070000C9413010C9413010C9413010C941301B0
:100080000C9413010C9413010C94BF070C941301EE
:100090000C9413010C9413010C9413010C94130190
:1000A0000C9413010C9413010C9413010C94130180
:1000B0000C9413010C9413010C9413010C94130170
:1000C0000C9413010C94DA010C9413016E616E0010
:1000D0004E414E00696E6600494E460000407A105F
:1000E000F35A00A0724E18090010A5D4E80000E8E9
:1000F0007648170000E40B54020000CA9A3B000047
:1001000000E1F505000080969800000040420F00D5
:100110000000A08601000000102700000000E80396
:10012000000000006400000000000A000000000061
:100130000100000000002C76D888DC674F0823DF20
:10014000C1DFAE59E1B1B796E5E3E453C63AE651F3
:10015000997696E8E6C28426EB898C9B62ED407C1A
:100160006FFCEFBC9C9F40F2BAA56FA5F490055AB6
:100170002AF75C936B6CF9676DC11BFCE0E40D47DB
:10018000FEF520E6B500D0ED902E030094357705FE
:100190000080841E080000204E0A000000C80C33B6
:1001A0003333330F986E12831141EF8D2114893B45
:1001B000E65516CFFEE6DB18D1844B381BF77C1DC5
:1001C000901DA4BBE424203284725E228100C9F118
:1001D00024ECA1E53D2711241FBECFEFD1E2DEBF05
:1001E000CDBF14BE88E10FB6F894809360001092E2
:1001F00060000FBE12E0A0E0B2E0EAE1F4E100E04E
:100200000BBF02C007900D92AC33B107D9F712E0D3
:10021000ACE3B2E001C01D92A236B107E1F70E9443
:1002200090020C940C0A0C94000081E08093200151
:100230008AE080932101809173008860809373002D
:1002400061E070E089E090E00E944B0361E070E0C3
:1002500088E090E00E944B0361E070E085E090E070
:100260000E944B0361E070E084E090E00E944B0349
:1002700061E070E087E090E00E944B0361E070E095
:1002800086E090E00E944B0361E070E082E090E045
:100290000E944B0361E070E083E090E00E944B031A
:1002A0000895AC0142505040662359F081E090E03F
:1002B00002C0880F991F4A95E2F722B1282B22B974
:1002C000089581E090E002C0880F991F4A95E2F7F7
:1002D000982F909582B1892382B908958330910532
:1002E00061F08430910518F4029751F0089586303A
:1002F000910561F0079739F0089560930002089521
:1003000060930102089560930202089560930302CE
:100310000895CF93DF93EC0183309105F9F0843099
:10032000910530F48130910571F00297A8F409C06D
:100330008530910501F185309105A0F0069721F1F6
:1003400036C061E019C061E086E090E00E94510192
:1003500060E087E090E029C061E005C061E082E0F4
:1003600090E01FC060E083E090E00E94510160E0F7
:1003700082E090E01AC060E087E090E00E945101C6
:1003800060E086E090E011C060E083E090E00E94D1
:10039000510160E082E090E00E94510160E087E05E
:1003A00090E00E94510160E0CE010E945101DF9176
:1003B000CF9108951F920F920FB60F9211242F9391
:1003C0003F934F935F936F937F938F939F93AF93DD
:1003D000BF93EF93FF9380913C028F5F80933C0229
:1003E0008436D9F410923C0261E089E090E00E94EA
:1003F000510161E089E090E00E94510161E088E0F4
:1004000090E00E94510161E085E090E00E9451017E
:1004100061E084E090E00E9451019091000280919F
:100420003C02981729F460E089E090E00E945101B5
:100430009091010280913C02981729F460E088E0D5
:1004400090E00E9451019091020280913C02981725
:1004500029F460E085E090E00E9451019091030250
:1004600080913C02981729F460E084E090E00E94BB
:100470005101FF91EF91BF91AF919F918F917F912A
:100480006F915F914F913F912F910F900FBE0F9001
:100490001F9018951F93182F18162CF481E090E0E8
:1004A0000E94890107C087FF0CC080E090E00E9495
:1004B00089011F77612F87E090E00E946E01612F14
:1004C00006C060E087E090E00E946E0160E086E098
:1004D00090E00E946E011F9108951F93182F181627
:1004E0002CF482E090E00E94890107C087FF0CC0D5
:1004F00083E090E00E9489011F77612F83E090E004
:100500000E946E01612F06C060E083E090E00E94CF
:100510006E0160E082E090E00E946E011F910895FC
:10052000CFEFD1E2DEBFCDBF0E94FE020E9447089E
:100530000E9415010E94E90484E092E00E942605D1
:100540000E94A9068EE092E00E9426050E943103D7
:100550000E94E9048CE192E00E94260580E50E9459
:100560004A028AE00E946D020E94E9048DE292E054
:100570000E9426050E94A90680E392E00E942605BB
:100580000E94310382E30E944A0282E30E946D02CC
:100590000E94E90483E392E00E9426050E94A906D6
:1005A00083E392E00E9426050E94310384E10E94C9
:1005B0004A0286E40E946D020E94E90486E392E00A
:1005C0000E9426050E94A90689E392E00E94260562
:1005D0000E9431030C940C0A8FEF90E00E94DF061A
:1005E00080EA90E00E94190708958FEF90E00E9442
:1005F000DF0680EA90E00E941907089554985C9AFB
:100600009A9A559A8FEF87B90E94F9040E94BE0604
:100610000E94470808959C012115310539F080EAB0
:100620009FE00197F1F721503040F6CF08959C01EB
:100630002115310539F084E090E00197F1F7215060
:100640003040F6CF089589B1992724E09695879593
:100650002A95E1F721E02827822F99278170907051
:1006600008950E9423038823E1F38EE190E00E9425
:100670000B030E9423038823E1F78EE190E00E94A0
:100680000B030895A29A0895A298089584B394E064
:10069000892784BB0895482F8230A0F142506130F1
:1006A000710531F16130710520F06230710581F022
:1006B000089581E090E002C0880F991F4A95E2F703
:1006C000982F909581B1892381B982B189230EC079
:1006D00021E030E002C0220F331F4A95E2F7922F4B
:1006E000909581B1892381B982B1822B82B9089515
:1006F0009B0102C0220F331F4A95E2F781B1822B82
:1007000081B90895813091F46130710569F06130EB
:10071000710520F06230710521F0089527982F9817
:10072000089527982F9A0895279A0895882389F481
:100730006130710569F06130710520F0623071053A
:1007400021F0089524982C98089524982C9A0895BF
:10075000249A0895AC01282F332720FF02C0249A41
:1007600001C0249821FF02C0279A01C02798CA011E
:10077000969587959695879581B90895249905C092
:1007800080FF02C02C9A01C02C98279905C081FFD8
:1007900002C02F9A01C02F989695879596958795B8
:1007A000A1E0B0E0E82FFF2740E050E067E081B132
:1007B0009927042E02C0959587950A94E2F78170D7
:1007C00090708A179B07C1F0CF01042E02C0959547
:1007D00087950A94E2F79D01042E02C0220F331F71
:1007E0000A94E2F780FF03C082B1822B04C0922FEB
:1007F000909582B1892382B961504F5F5F4F67FF47
:10080000D6CF0895282F8230B8F080B1482F5527D1
:1008100033272250304081E090E0022E02C0880F42
:10082000991F0A94E2F74823592302C0559547952A
:100830002A95E2F7842F09C0813049F483B19927C2
:10084000880F892F881F990B9195992708958823E0
:1008500051F483B199278071907054E095958795F4
:100860005A95E1F7F2CF0895282F6623B9F0223088
:1008700068F0822F9927029721E030E002C0220F12
:10088000331F8A95E2F782B1822B18C0213011F410
:100890002F9A08952223D9F42C9A0895223080F0BB
:1008A00033272250304081E090E002C0880F991F2A
:1008B0002A95E2F7982F909582B1892382B90895FD
:1008C000213011F42F980895222309F42C980895CB
:1008D0009C01969587959695879582B945B14F76F7
:1008E000822F99279C01E6E0220F331FEA95E1F75A
:1008F000207830708170907074E0880F991F7A951D
:10090000E1F7822B482B45B9089580B1282F332772
:10091000220F331F220F331F83B19927880F892F8E
:10092000881F990B9195880F991F282B392B83B11C
:10093000992780719070A4E095958795AA95E1F725
:10094000822B932B0895823068F0282F3327225072
:10095000304081E090E002C0880F991F2A95E2F7AD
:1009600080B90895813019F480E883B90895882307
:1009700011F480E183B9089588E190E028E00FB692
:10098000F894A895809360000FBE20936000FFCF7D
:10099000982F96959575880F8A7A892B982F96951A
:1009A00096959373880F880F8C7C892B8295F89489
:1009B0005E9A88B981E090E00E9417035E9878946F
:1009C00008955F980E94C80484E690E00E9417038F
:1009D000089581E00E94E10484EE9CE00E941703E8
:1009E00008958CE00E94E104089588E00E94E104EB
:1009F0000895569A579A5E988FE090E00E940B03F4
:100A000088E30E94E10484E293E10E94170388E3F3
:100A10000E94E10482E390E00E94170388E30E94B1
:100A2000E10488E30E94E1040E94F5040E94E904C5
:100A300086E00E94E1040E94F10408955F9A0E94FA
:100A4000C80482E390E00E94170308951F93CF9398
:100A5000DF93EC0110E08881882369F0FE01E10F4B
:100A6000F11D1F5F80810E941E05FE01E10FF11D37
:100A70008081882399F7DF91CF911F9108950F937B
:100A80001F93182F04E6602F0E946708805D0E9464
:100A90001E05812F602F0E9467080AE0892F602FB2
:100AA0000E946708805D0E941E05812F602F0E94B2
:100AB0006708892F805D0E941E051F910F91089580
:100AC000CF93C82F8A3098F0843630F064E60E94C5
:100AD0006708805D0E941E058C2F64E60E946708EF
:100AE000892F6AE00E946708805D0E941E058C2F96
:100AF0006AE00E946708892F805D0E941E05CF91E1
:100B00000895CF93C82F87FD05C08BE20E941E0574
:100B10008C2F05C08DE20E941E058C2F81950E94AE
:100B20003F05CF910895CF93C82F87FD05C08BE275
:100B30000E941E058C2F05C08DE20E941E058C2F81
:100B400081950E946005CF910895EF92FF920F93D7
:100B50001F937C0100E117E2B8010E947308CB01EA
:100B6000805D0E941E05C701B8010E94730808EE4F
:100B700013E0B8010E947308CB01805D0E941E053E
:100B8000C701B8010E94730804E610E0B8010E9492
:100B90007308CB01805D0E941E05C701B8010E9449
:100BA00073080AE010E0B8010E947308CB01805D71
:100BB0000E941E05C701B8010E947308805D0E9453
:100BC0001E051F910F91FF90EF900895CF93DF9333
:100BD000EC018A309105D8F18436910558F183E013
:100BE000C83ED807D0F087E2C031D80748F0CE0120
:100BF00060E177E20E947308CB01805D0E941E05D0
:100C0000CE0160E177E20E94730868EE73E00E9413
:100C10007308CB01805D0E941E05CE0168EE73E073
:100C20000E94730864E670E00E947308CB01805D47
:100C30000E941E05CE0164E670E00E9473086AE01F
:100C400070E00E947308CB01805D0E941E05CE01FA
:100C50006AE070E00E947308805D0E941E05DF91CB
:100C6000CF910895CF93DF93EC0197FD05C08BE200
:100C70000E941E05CE0107C08DE20E941E05882736
:100C800099278C1B9D0B0E94A505DF91CF9108959C
:100C9000CF93DF93EC0197FD05C08BE20E941E0508
:100CA000CE0107C08DE20E941E05882799278C1B64
:100CB0009D0B0E94E605DF91CF9108958F708A30D9
:100CC00010F4805D01C0895C0E941E0508951F9389
:100CD000182F82958F700E945E06812F0E945E06FB
:100CE0001F9108950F931F938C01892F9927829547
:100CF0008F700E945E06812F99270E945E06802FCA
:100D000082958F700E945E06802F0E945E061F9162
:100D10000F910895AAE0B0E0E0E9F6E00C949508A0
:100D2000DC01CB0100E010E023E030E0AE014F5FDA
:100D30005F4FBC01CD010E94BE08CE0101960E940A
:100D40002605E4E02A960C94B10880E80E94E104AC
:100D5000089580EC0E94E1040895282F332746E08F
:100D6000220F331F4A95E1F7862F61E10E94670841
:100D7000892F822B80680E94E104089581E080938E
:100D800080008BE0809381008DB1806C8DB9259AB5
:100D9000809180008068809380001092890010927A
:100DA00088008DB18C608DB9269A80918000806218
:100DB0008093800010928B0010928A0008958F37E4
:100DC00029F4109288006D9A759808956D98759A17
:100DD000282F332787FF09C08EB18F7380688EB9A3
:100DE000220F331F822F8F5F0AC08EB18F738064F2
:100DF0008EB98FE790E0821B930B880F991F809329
:100E000088000895809388008EB18F738EB90895FD
:100E10006D9B03C080E090E008958CB1992725E098
:100E2000969587952A95E1F78095909581709070B9
:100E300008958F3729F410928A006C9A7498089557
:100E40006C98749A282F332787FF09C08EB1837F4F
:100E500084608EB9220F331F822F8F5F0AC08EB13C
:100E6000837F88608EB98FE790E0821B930B880F99
:100E7000991F80938A00089580938A008EB1837FA2
:100E80008EB908956C9B03C080E090E008958CB10A
:100E9000992734E0969587953A95E1F78095909556
:100EA000817090700895873028F4E82FFF27E55A65
:100EB000FD4F60830895873030F5E82FFF27DF016D
:100EC000AE0FBF1FAD01415C5D4FE55AFD4F808104
:100ED000282F3327862F992780589040289FB001CC
:100EE000299F700D389F700D11249B012854344F99
:100EF000FA0131832083A35BBD4F82E596E1821B1B
:100F0000930B8D939C930895873030F5E82FFF273E
:100F1000DF01AE0FBF1FAD01415C5D4FE55AFD4FD4
:100F20008081282F3327862F992787FD9095289F2A
:100F3000B001299F700D389F700D11249B0128541A
:100F4000344FFA0131832083A35BBD4F82E596E1E4
:100F5000821B930B8D939C930895873078F4E82F30
:100F6000FF27EE0FFF1FDF01A15CBD4F1D921C92FA
:100F7000E35BFD4F82E596E19183808308951F92A4
:100F80000F920FB60F9211242F933F938F939F933D
:100F9000EF93FF9380913E028130E1F418B85D9A9F
:100FA0008A95F1F75D9880913D02E82FFF27EE0FBB
:100FB000FF1FE35BFD4F80919C0090919D0020817D
:100FC0003181820F931F90939D0080939C0010921B
:100FD0003E0252C080913D028F5F80933D0280911E
:100FE0003D02873010F010923D0280913D02E82FC3
:100FF000FF27EE0FFF1FE15CFD4F80819181892B60
:1010000039F120913D0281E090E002C0880F991FE4
:101010002A95E2F788B95D9A81E08A95F1F75D98A3
:1010200080913D02E82FFF27EE0FFF1FE15CFD4F8F
:1010300080919C0090919D0020813181820F931FAF
:1010400090939D0080939C0081E080933E0214C0A9
:1010500080913D02E82FFF27EE0FFF1FE35BFD4F5E
:1010600080919C0090919D0020813181820F931F7F
:1010700090939D0080939C00FF91EF919F918F91A1
:101080003F912F910F900FBE0F901F901895CF9307
:10109000C0E08C2F0E94AD0768E070E08C2F0E94AA
:1010A0005307CF5FC730A8F318B85D9A81E08A95DF
:1010B000F1F75D988091910082608093910080911A
:1010C00071008860809371007894CF910895991B86
:1010D00079E004C0991F961708F0961B881F7A952F
:1010E000C9F780950895AA1BBB1B51E107C0AA1F31
:1010F000BB1FA617B70710F0A61BB70B881F991FB9
:101100005A95A9F780959095BC01CD0108952F922D
:101110003F924F925F926F927F928F929F92AF9287
:10112000BF92CF92DF92EF92FF920F931F93CF93D4
:10113000DF93CDB7DEB7CA1BDB0B0FB6F894DEBF6B
:101140000FBECDBF09942A88398848885F846E8491
:101150007D848C849B84AA84B984C884DF80EE80DB
:10116000FD800C811B81AA81B981CE0FD11D0FB6E4
:10117000F894DEBF0FBECDBFED010895EF92FF9250
:101180000F931F93CF937A01C22F102F283008F0AE
:10119000C7E000E02C2FA7010E942D09482FF7017E
:1011A000D7016D91562F262F332720FF04C023FD32
:1011B00002C08DE20AC0812F992781FF02C08BE215
:1011C00003C080FF04C080E2F7018083FD0123FF9C
:1011D00003C0ACECB0E004C022FF09C0A4EDB0E055
:1011E00012FD1496BD01CF010E94050A2FC08D91FA
:1011F0008193813311F0562F5F7ECC2339F09EE22C
:101200008D919193982FC150D9F78193DF01319639
:1012100012FF02C085E401C085E68C9347FF04C03D
:101220008DE28193419508C0442321F454FF02C00C
:101230008DE201C08BE28193C0E34A301CF0CF5FA6
:101240004A50FBCFC193405D41931082C701CF91BB
:101250001F910F91FF90EF900895283008F027E03C
:101260003327DA01990F311D87FD916000966105E2
:10127000710539F432602E5F3D9330E32A95E1F732
:1012800008959F3F30F080387105610509F03C5F9B
:101290003C5F3D93913008F08068911DDF93CF93C0
:1012A0001F930F93FF92EF92192F987F9695E92F36
:1012B00096959695E90FFF27EA5CFE4F992733270D
:1012C000EE24FF24A701E70105900894079428F471
:1012D000360FE71EF81E491F511D660F771F881F26
:1012E000991F0694A1F70590079428F4E70EF81EBD
:1012F000491F561FC11D770F881F991F661F06942F
:10130000A1F70590079428F4F80E491F561FC71F30
:10131000D11D880F991F661F771F0694A1F70590AE
:10132000079420F4490F561FC71FD81F990F661F37
:10133000771F881F0694A9F784911095177041F0C4
:10134000D695C79557954795F794E7941A95C1F7A1
:10135000ECEDF0E0689415901591359165919591BB
:1013600005907FE27395E118F10A430B560BC90B08
:10137000D009C0F7E10CF11E431F561FC91FD01D35
:101380007EF4703311F48A95E6CFE894015030F082
:10139000080F0AF40027021708F4202F2395022FC4
:1013A0007A3328F079E37D932A95E9F710C07D938D
:1013B0002A9589F60694979567953795179517940A
:1013C000E118F10A430B560BC90BD00998F023958D
:1013D0007E9173957A3308F070E37C932013B8F70D
:1013E0007E9170617D9330F0839571E37D9370E31E
:1013F0002A95E1F71124EF90FF900F911F91CF9163
:10140000DF91992787FD90950895FB01DC010590F8
:0A1410000D920020E1F70895FFCFD0
:10141A00323232324D6163732072756C6500796FB6
:10142A007520616C6C207375636B73005F5F4D751B
:10143A006C74692D506C6578695F5F5F00383000A5
:0C144A0031300035300032300037300007
:00000001FF
