:100000000C94FA000C9422010C9422010C9422010D
:100010000C9422010C9422010C9422010C942201D4
:100020000C9422010C9422010C9422010C942201C4
:100030000C9422010C9422010C9422010C942201B4
:100040000C9422010C9422010C9422010C942201A4
:100050000C9422010C9422010C9422010C94220194
:100060000C9422010C9422010C9422010C94220184
:100070000C9422010C9422010C9422010C94220174
:100080000C9422010C9422010C9489080C942201F6
:100090000C9422010C9422010C9422010C94220154
:1000A0000C9422010C9422010C9422010C94220144
:1000B0000C9422010C9422010C9422010C94220134
:1000C0000C9422010C943B010C94220105A84CCD08
:1000D000B2D44EB93836A9020C50B9918688083C82
:1000E000A6AAAA2ABE000000803F696E6600494E9B
:1000F00046006E616E004E414E0000407A10F35A89
:1001000000A0724E18090010A5D4E80000E8764857
:10011000170000E40B54020000CA9A3B000000E103
:10012000F505000080969800000040420F00000096
:10013000A08601000000102700000000E803000076
:1001400000006400000000000A0000000000010040
:10015000000000002C76D888DC674F0823DFC1DF61
:10016000AE59E1B1B796E5E3E453C63AE651997664
:1001700096E8E6C28426EB898C9B62ED407C6FFC9E
:10018000EFBC9C9F40F2BAA56FA5F490055A2AF7E0
:100190005C936B6CF9676DC11BFCE0E40D47FEF5E9
:1001A00020E6B500D0ED902E030094357705008051
:1001B000841E080000204E0A000000C80C333333B0
:1001C000330F986E12831141EF8D2114893BE65550
:1001D00016CFFEE6DB18D1844B381BF77C1D901D33
:1001E000A4BBE424203284725E228100C9F124EC95
:1001F000A1E53D2711241FBECFEFD1E2DEBFCDBF69
:1002000014BE88E10FB6F8948093600010926000ED
:100210000FBE12E0A0E0B2E0EAEFF9E100E00BBFB0
:1002200002C007900D92A433B107D9F712E0A4E3FE
:10023000B2E001C01D92AE35B107E1F70E9465033F
:100240000C94FC0C0C940000873079F0883018F482
:10025000863081F40DC0883029F0893059F46093DC
:100260003502089560933602089560933702089529
:100270006093380208951F920F920FB60F921124C7
:100280002F933F934F935F936F937F938F939F939E
:10029000AF93BF93EF93FF93809134028F5F80936E
:1002A00034028436D1F41092340261E070E089E0C7
:1002B00090E00E94A60461E070E088E090E00E9477
:1002C000A60461E070E087E090E00E94A60461E08F
:1002D00070E086E090E00E94A60490913502809143
:1002E0003402981731F460E070E089E090E00E94F9
:1002F000A6049091360280913402981731F460E0A0
:1003000070E088E090E00E94A6049091370280910E
:100310003402981731F460E070E087E090E00E94CA
:10032000A6049091380280913402981731F460E06D
:1003300070E086E090E00E94A604FF91EF91BF91EB
:10034000AF919F918F917F916F915F914F913F916D
:100350002F910F900FBE0F901F901895833091052D
:1003600041F18430910530F48130910581F002979C
:10037000B8F40AC08530910551F185309105E0F05F
:10038000069709F049C030C061E070E022C060E02B
:1003900070E083E090E00E94A60461E070E01FC07E
:1003A00060E070E085E090E00E94A60461E070E00B
:1003B0000BC061E070E002C060E070E085E090E0BA
:1003C0000E94A60460E070E084E090E00AC060E073
:1003D00070E083E090E00E94A60460E070E082E0BC
:1003E00090E00E94A604089560E070E085E090E04F
:1003F0000E94A60460E070E084E090E00E94A60401
:1004000060E070E083E090E00E94A60460E070E0AD
:1004100082E090E00E94A604089581E0809320018C
:100420008AE080932101E3E7F0E0808188608083A7
:1004300061E070E089E090E00E94C70361E070E055
:1004400088E090E00E94C70361E070E085E090E002
:100450000E94C70361E070E084E090E00E94C7035F
:1004600061E070E087E090E00E94C70361E070E027
:1004700086E090E00E94C70361E070E083E090E0D6
:100480000E94C70361E070E082E090E00E94C70331
:1004900008951F93182F18162CF482E090E00E9404
:1004A000AE0107C0882371F083E090E00E94AE01A6
:1004B0001195612F89E00E942401612F88E00E943C
:1004C000240104C084E090E00E94AE011F910895D1
:1004D0001F93182F18162CF481E090E00E94AE01B3
:1004E00007C0882371F080E090E00E94AE01119572
:1004F000612F87E00E942401612F86E00E94240181
:1005000004C085E090E00E94AE011F910895EF9233
:10051000FF920F931F930F2EF0E0EF2EF0E0FF2ECF
:10052000F0E00F2FF0E01F2FF02DC801B7010E945F
:10053000030B20E030E040E252E40E94F60B0E9400
:10054000060BDC01CB010E946802C801B7010E94C2
:10055000590C20E030E040E252E40E94F60B0E9489
:10056000060BDC01CB010E9449028AE090E00E9468
:100570009A032DEC3CEC4CEC5DE3C801B7010E9402
:100580009F0A7B018C012BED3FE049E450E40E947F
:100590003B0B18160CF4BFCFC8CF0E94FD0680E0BD
:1005A00092E00E94BE060E9443050E94FD068BE079
:1005B00092E00E94BE068AE00E94490280ED97E028
:1005C0000E949A0380E00E9449020E9443050E9413
:1005D000FD0684E192E00E94BE068AE00E94680265
:1005E00080ED97E00E949A0380E00E9468020E94DA
:1005F000FD068AE192E00E94BE0608958FE790E032
:100600000E94E0078FE790E00E94A60708958EE120
:1006100090E00E94E00788EB9BE00E949A038AE545
:1006200090E00E94A607089588EF0E94490281E0A9
:1006300090E00E947C04892B29F482E390E00E94E0
:100640009A03F5CF80E00E94680280E00E94490290
:1006500008958AE00E9468028EE10E94490204C067
:1006600082E390E00E949A0380E090E00E947C0484
:10067000892BB1F380E00E94490208958AE00E942C
:1006800068028EE10E94490204C082E390E00E9469
:100690009A0380E090E00E947C04892BB1F380E013
:1006A0000E9449028EE10E94680204C082E390E049
:1006B0000E949A0380E090E00E944B078F379105DB
:1006C000ACF380E00E94680208950E9434050E9405
:1006D0000D020E94420780E00E94680280E00E94B2
:1006E00049020E94FD068FE192E00E94BE060E9430
:1006F000ED0688E292E00E94BE060E94ED060E948E
:10070000430560E070E080E090E00E94C70360E095
:1007100070E081E090E00E94C7030E94070388E830
:1007200093E10E949A030E94FD068EE292E00E94ED
:10073000BE0608959C0106C080EA9FE00197F1F78C
:100740002150304021153105B9F708959C0106C0AC
:1007500084E090E00197F1F72150304021153105F8
:10076000B9F7089589B190E024E0969587952A9588
:10077000E1F780959095817090700895A29A089500
:10078000A298089584B394E0892784BB08958230A9
:10079000A8F1482F42506130710539F1613071057F
:1007A00028F06230710509F04EC00FC081B121E020
:1007B00030E002C0220F331F4A95E2F720958223D2
:1007C00081B982B1282322B9089531B181E090E046
:1007D00002C0880F991F4A95E2F7282F20952323FE
:1007E00021B922B1822B82B9089581B102C0660F6E
:1007F000771F4A95E2F7862B81B90895813091F4ED
:100800006130710569F06130710520F06230710569
:10081000D1F403C027982F98089527982F9A089508
:10082000279A08956130710569F06130710520F0F3
:100830006230710541F403C024982C9808952498DF
:100840002C9A0895249A0895282F80FF02C0249A94
:1008500001C0249821FF02C0279A01C027989695CD
:1008600087959695879581B90895249905C080FF4D
:1008700002C02C9A01C02C98279905C081FF02C0A4
:100880002F9A01C02F98969587959695879540E069
:1008900050E0682F70E081B190E0042E02C0959581
:1008A00087950A94E2F780FD21C0CB01042E02C097
:1008B000959587950A94E2F780FF0CC022B181E0FC
:1008C00090E0042E02C0880F991F0A94E2F7282BAB
:1008D00022B90CC022B181E090E0042E02C0880F42
:1008E000991F0A94E2F78095822382B94F5F5F4F88
:1008F0004830510581F608958230B0F040B1282F7C
:1009000030E02250304081E090E0022E02C0880F9B
:10091000991F0A94E2F750E08423952302C095952D
:1009200087952A95E2F706C0813031F483B1881F9C
:100930008827881F90E0089583B190E080719070BF
:1009400054E0969587955A95E1F708956623B9F096
:10095000823078F042B1282F30E02250304081E0E0
:1009600090E002C0880F991F2A95E2F7482B42B900
:100970000895813011F42F9A08952C9A08958230A9
:1009800080F042B1282F30E02250304081E090E0EA
:1009900002C0880F991F2A95E2F78095842382B9B7
:1009A0000895813011F42F9808952C9808959C0192
:1009B000369527953695279522B945B190E09C014B
:1009C00021703070E4E0220F331FEA95E1F74F7693
:1009D000422B82709070959587959695982F8827D1
:1009E00097958795482B45B9089540B123B183B1B8
:1009F00090E08071907054E0959587955A95E1F755
:100A000050E0440F551F440F551F842B952B30E0A9
:100A1000220F232F221F330B3195220F331F822BDE
:100A2000932B0895823068F0282F30E02250304018
:100A300081E090E002C0880F991F2A95E2F780B903
:100A40000895813011F480E801C080E183B90895F0
:100A500088E190E028E00FB6F894A89580936000B4
:100A60000FBE20936000FFCF54985C9A9A9A559AD3
:100A70008FEF87B90E941D070E9488070E94130903
:100A80000E94420708954C99FECF2EE130E080EAA3
:100A90009FE00197F1F721503040C9F74C9BFECF02
:100AA0002EE130E080EA9FE00197F1F721503040DD
:100AB000C9F70895982F990F9A7A86958575982B7E
:100AC000892F880F880F8C7C969596959373892B28
:100AD0008295F8945E9A88B981E090E00E94A6031E
:100AE0005E98789408955F9A0E945A0582E390E098
:100AF0000E94A60308958F708A3010F4805D01C0B3
:100B0000895C0E94730508950F931F938C01892FB0
:100B1000992782958F700E947B05812F99270E94CB
:100B20007B05802F82958F700E947B05802F0E940D
:100B30007B051F910F9108951F93182F82958F7039
:100B40000E947B05812F0E947B051F910895CF9302
:100B5000DF93EC018A309105D8F18436910558F184
:100B600083E0C83ED807D0F087E2C031D80748F00C
:100B7000CE0160E177E20E94B10CCB01805D0E9462
:100B80007305CE0160E177E20E94B10C68EE73E07C
:100B90000E94B10CCB01805D0E947305CE0168EE0E
:100BA00073E00E94B10C64E670E00E94B10CCB01CE
:100BB000805D0E947305CE0164E670E00E94B10C76
:100BC0006AE070E00E94B10CCB01805D0E94730569
:100BD000CE016AE070E00E94B10C805D0E94730556
:100BE000DF91CF910895CF93DF93EC0197FD05C07E
:100BF0008BE20E947305CE0107C08DE20E9473054F
:100C0000882799278C1B9D0B0E94A705DF91CF9108
:100C100008950F931F938C0160E177E20E94B10C5D
:100C2000CB01805D0E947305C80160E177E20E94FC
:100C3000B10C68EE73E00E94B10CCB01805D0E94A4
:100C40007305C80168EE73E00E94B10C64E670E0C1
:100C50000E94B10CCB01805D0E947305C80164E65F
:100C600070E00E94B10C6AE070E00E94B10CCB0110
:100C7000805D0E947305C8016AE070E00E94B10CBB
:100C8000805D0E9473051F910F910895CF93DF93AC
:100C9000EC0197FD05C08BE20E947305CE0107C0F1
:100CA0008DE20E947305882799278C1B9D0B0E945B
:100CB0000906DF91CF9108951F93182F8A3098F07D
:100CC000843630F064E60E94A50C805D0E947305B6
:100CD000812F64E60E94A50C892F6AE00E94A50C72
:100CE000805D0E947305812F6AE00E94A50C892F08
:100CF000805D0E9473051F9108951F93182F87FD33
:100D000005C08BE20E947305812F05C08DE20E9411
:100D10007305812F81950E945C061F9108951F9392
:100D2000182F64E60E94A50C805D0E947305812F38
:100D300064E60E94A50C892F6AE00E94A50C805DE4
:100D40000E947305812F6AE00E94A50C892F805DA7
:100D50000E9473051F9108951F93182F87FD05C0EA
:100D60008BE20E947305812F05C08DE20E947305FE
:100D7000812F81950E948F061F9108950F931F93D5
:100D8000CF93DF938C01C0E0D0E002C00E947305D6
:100D9000F801EC0FF11D808121968823B9F7DF91CE
:100DA000CF911F910F9108955F980E945A0584E694
:100DB00090E00E94A6030895282F30E046E0220F1D
:100DC000331F4A95E1F7862F61E10E94A50C892F18
:100DD000822B80680E94D406089580EC0E94D4067D
:100DE000089580E80E94D406089588E00E94D40601
:100DF00008958CE00E94D406089581E00E94D406F4
:100E000084EE9CE00E94A6030895AAE0B0E0EBE027
:100E1000F7E00C94D10C00E010E023E030E07E011C
:100E20000894E11CF11CA7010E943909C7010E9426
:100E3000BE06E6E02A960C94ED0C569A579A5E98F8
:100E40008FE090E00E949A0388E30E94D40684E237
:100E500093E10E94A60388E30E94D40682E390E017
:100E60000E94A60388E30E94D40688E30E94D40669
:100E70000E94F5060E94FD0686E00E94D4060E94AC
:100E8000F906089580E680937C00EAE7F0E080812F
:100E9000876880830895982F883018F08DEB90E054
:100EA000089580E680937C0080917C00892B80935C
:100EB0007C0080917A00806480937A0080917A002F
:100EC00086FDFCCF8091790090E00895982F8830BE
:100ED00018F08DEA9BE0089580E480937C00809177
:100EE0007C00892B80937C0080917A0080648093C1
:100EF0007A0080917A0086FDFCCF20917800809165
:100F0000790090E0982F882730E0822B932B08956A
:100F1000E0E8F0E081E080838BE0809381008DB198
:100F2000806C8DB9259A80818068808310928900B9
:100F3000109288008DB18C608DB9269A8081806274
:100F4000808310928B0010928A0008958F3729F4C5
:100F5000109288006D9A759808956D98759A282F4B
:100F600030E087FF09C08EB18F7380688EB9220F81
:100F7000331F822F8F5F0AC08EB18F7380648EB94A
:100F80008FE790E0821B930B880F991F8093880056
:100F90000895809388008EB18F738EB908956D9BEC
:100FA00003C080E090E008958CB190E055E0969504
:100FB00087955A95E1F78095909581709070089586
:100FC0008F3729F410928A006C9A749808956C985F
:100FD000749A282F30E087FF09C08EB1837F846028
:100FE0008EB9220F331F822F8F5F0AC08EB1837F8D
:100FF00088608EB98FE790E0821B930B880F991F52
:1010000080938A00089580938A008EB1837F8EB981
:1010100008956C9B03C080E090E008958CB190E04F
:10102000E4E096958795EA95E1F780959095817033
:1010300090700895873028F4E82FF0E0E95AFD4FCA
:1010400060830895873020F5A82FB0E0262F30E088
:1010500020583040FD01E95AFD4F808190E0A90100
:10106000489F9001499F300D589F300D11242854FE
:10107000344FAA0FBB1FFD01E55CFD4F3183208378
:10108000A75BBD4F89E29BE0821B930B8D939C93E2
:101090000895873020F5A82FB0E0FD01E95AFD4FF3
:1010A000808190E0262F332727FD3095A901849F6A
:1010B0009001859F300D949F300D11242854344F9A
:1010C000AA0FBB1FFD01E55CFD4F31832083A75BA9
:1010D000BD4F89E29BE0821B930B8D939C930895F7
:1010E000873078F4E82FF0E0EE0FFF1FDF01A55CFA
:1010F000BD4F1D921C92E75BFD4F89E29BE09183FF
:101100008083089588B95D9A81E08A95F1F75D98AA
:1011100008951F920F920FB60F9211242F933F93B1
:101120004F935F936F937F938F939F93AF93BF93EF
:10113000EF93FF93809139028130C9F480E00E94DF
:10114000820880919C0090919D00E0913A02F0E02D
:10115000EE0FFF1FE75BFD4F20813181820F931F50
:1011600090939D0080939C00109239024BC0809117
:101170003A028F5F80933A0280913A02873010F0F2
:1011800010923A02E0913A02F0E0EE0FFF1FE55CA8
:10119000FD4F80819181892B11F120913A0281E0EC
:1011A00090E002C0880F991F2A95E2F70E948208FA
:1011B00020919C0030919D00E0913A02F0E0EE0F0A
:1011C000FF1FE55CFD4F80819181280F391F30930F
:1011D0009D0020939C0081E08093390213C0809190
:1011E0009C0090919D00E0913A02F0E0EE0FFF1F0D
:1011F000E75BFD4F20813181820F931F90939D000B
:1012000080939C00FF91EF91BF91AF919F918F913F
:101210007F916F915F914F913F912F910F900FBEF2
:101220000F901F901895A7E5B2E020E030E0F9019B
:10123000E55CFD4F11821082F901E75BFD4F89E209
:101240009BE09183808388E08D932E5F3F4F2E300B
:10125000310569F780E00E948208809191008260E8
:1012600080939100809171008860809371007894E0
:101270000895A0E0B0E0EFE3F9E00C94D00C7A011F
:10128000D02E122F283008F017E000E0212FA70100
:101290000E94BF09BC01F7010191402F00FF04C06B
:1012A00003FD02C08DE20BC0D1FE04C08BE2E7015A
:1012B000888307C0D0FC02C0970104C080E2D70138
:1012C0008C939F0143FF03C062EF70E004C042FFB4
:1012D0000AC06AEE70E0D2FE02C06C5F7F4FC901A7
:1012E0000E94970A46C08081E9018993813309F001
:1012F0000F7E1123B1F0A701D901812F2EE2FA014F
:101300009281FD01218381504F5F5F4F1196292FFC
:101310008823A9F7FE0131961150E10FF11D919339
:10132000EF01D2FE02C085E401C085E6262FFE0152
:10133000819367FF06C08DE28983DF0111962195B5
:101340000CC0662339F404FF05C08DE28983DF01F8
:10135000119603C08BE28193DF0180E302C08F5FAF
:101360002A502A30E4F7FD018193205DED012983A5
:101370001182C701E7E0CDB7DEB70C94EC0C283042
:1013800008F027E03327DA01990F311D87FD9160BE
:1013900000966105710539F432602E5F3D9330E3AC
:1013A0002A95E1F708959F3F30F080387105610577
:1013B00009F03C5F3C5F3D93913008F08068911DDF
:1013C000DF93CF931F930F93FF92EF92192F987F84
:1013D0009695E92F96959695E90FFF27EC5AFE4FC3
:1013E00099273327EE24FF24A701E70105900894ED
:1013F000079428F4360FE71EF81E491F511D660F8B
:10140000771F881F991F0694A1F70590079428F469
:10141000E70EF81E491F561FC11D770F881F991F21
:10142000661F0694A1F70590079428F4F80E491F4B
:10143000561FC71FD11D880F991F661F771F06945F
:10144000A1F70590079420F4490F561FC71FD81F16
:10145000990F661F771F881F0694A9F7849110952E
:10146000177041F0D695C79557954795F794E7942F
:101470001A95C1F7EAEFF0E068941590159135914F
:101480006591959105907FE27395E118F10A430B00
:10149000560BC90BD009C0F7E10CF11E431F561FB4
:1014A000C91FD01D7EF4703311F48A95E6CFE894FD
:1014B000015030F0080F0AF40027021708F4202F1B
:1014C0002395022F7A3328F079E37D932A95E9F763
:1014D00010C07D932A9589F6069497956795379560
:1014E00017951794E118F10A430B560BC90BD00955
:1014F00098F023957E9173957A3308F070E37C938E
:101500002013B8F77E9170617D9330F0839571E37D
:101510007D9370E32A95E1F71124EF90FF900F91EE
:101520001F91CF91DF91992787FD90950895FB0139
:10153000DC0105900D920020E1F708955058BB277B
:10154000AA270ED008C1C8D030F0CDD020F031F499
:101550009F3F11F41EF4BDC00EF4E095E7FBB3C04D
:10156000E92F1BD180F3BA17620773078407950729
:1015700018F071F49EF533C10EF4E0950B2EBA2FDE
:10158000A02D0B01B90190010C01CA01A001112489
:10159000FF27591B99F0593F50F4503E68F11A1635
:1015A000F040A22F232F342F4427585FF3CF4695C6
:1015B00037952795A795F0405395C9F77EF41F16E8
:1015C000BA0B620B730B840BBAF09150A1F0FF0FB2
:1015D000BB1F661F771F881FC2F70EC0BA0F621F9E
:1015E000731F841F48F4879577956795B795F7958E
:1015F0009E3F08F0B3CF9395880F08F09927EE0F20
:1016000097958795089577D0E395B6C004D06894F0
:10161000B111E6C00895C9D088F09F5790F0B92F56
:101620009927B751A0F0D1F0660F771F881F991F37
:101630001AF0BA95C9F712C0B13081F0D0D0B1E03C
:101640000895CDC0672F782F8827B85F39F0B93F4C
:10165000CCF3869577956795B395D9F73EF4909539
:101660008095709561957F4F8F4F9F4F089507D05C
:1016700008F481E0089503D008F48FEF0895990FDE
:101680000008550FAA0BE0E8FEEF16161706E8074C
:10169000F907C0F012161306E407F50798F0621B6D
:1016A000730B840B950B39F40A2661F0232B242B42
:1016B000252B21F408950A2609F4A140A6958FEF61
:1016C000811D811D089597F99F6780E870E060E0B3
:1016D00008959FEF80EC089500240A9416161706CB
:1016E00018060906089500240A9412161306140613
:1016F00005060895EECF59D0E8F3E894EFEFBB2745
:101700003FE048EC5FE76B3D73078407950708F1FE
:10171000FF279F57B25A6A4D7F40894CF04032F400
:10172000BE556542704F8643FF4F0894EE1F91509F
:1017300030F0BB0F661F771F881FFF1FEBCF9EE7A0
:10174000882332F0BB0F661F771F881F9A95C1F759
:101750009395E095B4C0092E0394000C11F48823EE
:1017600052F0BB0F40F4BF2B11F460FF04C06F5F59
:101770007F4F8F4F9F4F0895EF93E0FF06C0A2EA7F
:101780002AED3FE049EC5FEBEBDEE5DF0F900394E1
:1017900001FC9058ECECF0E0A2C057FD9058440FCB
:1017A000551F59F05F3F71F04795880F97FB991FC0
:1017B00061F09F3F79F0879508951216130614067D
:1017C000551FF2CF4695F1DF08C01616170618060A
:1017D000991FF1CF86957105610508940895E894E5
:1017E000BB2766277727CB0197F908950BD0B3CF96
:1017F00073DF28F078DF18F0952309F064CF69CF04
:101800001124EECFCADFA0F3959FD1F3950F50E0DE
:10181000551F629FF001729FBB27F00DB11D639FA2
:10182000AA27F00DB11DAA1F649F6627B00DA11D48
:10183000661F829F2227B00DA11D621F739FB00DEE
:10184000A11D621F839FA00D611D221F749F33275E
:10185000A00D611D231F849F600D211D822F762FF7
:101860006A2F11249F5750408AF0E1F088234AF0F4
:10187000EE0FFF1FBB1F661F771F881F9150504040
:10188000A9F79E3F510570F01ECFAACF5F3FECF342
:10189000983EDCF3869577956795B795F795E7952C
:1018A0009F5FC1F7FE2B880F911D9695879597F93D
:1018B00008959F9320DF0F9007FCEE5F5DCF9F3F61
:1018C00049F0915028F4869577956795B7959F5F75
:1018D00080389F4F880F9695879597F908959F9325
:1018E0008F937F936F93FF93EF939B01AC017EDF08
:1018F000EF91FF9105D02F913F914F915F9176CF5E
:10190000DF93CF931F930F93FF92EF92DF927B01B0
:101910008C01689405C0DA2EEF0174DFFE01E894B3
:10192000A5912591359145915591AEF3EF0118DEC2
:10193000FE019701A801DA9479F7DF90EF90FF900C
:101940000F911F91CF91DF910895991B79E004C009
:10195000991F961708F0961B881F7A95C9F78095EE
:101960000895AA1BBB1B51E107C0AA1FBB1FA617E6
:10197000B70710F0A61BB70B881F991F5A95A9F738
:1019800080959095BC01CD0108952F923F924F9282
:101990005F926F927F928F929F92AF92BF92CF92FF
:1019A000DF92EF92FF920F931F93CF93DF93CDB708
:1019B000DEB7CA1BDB0B0FB6F894DEBF0FBECDBF80
:1019C00009942A88398848885F846E847D848C8451
:1019D0009B84AA84B984C884DF80EE80FD800C815A
:1019E0001B81AA81B981CE0FD11D0FB6F894DEBF3D
:0A19F0000FBECDBFED010895FFCF3B
:1019FA006D6F746F72207465737400666F727761AD
:101A0A0072647300726967687400646F6E6500526D
:101A1A00656420426F742100526561647900444F05
:041A2A004E45000025
:00000001FF
